{
  "_format": "hh-sol-artifact-1",
  "contractName": "MarketNFT",
  "sourceName": "contracts/MarketNFT.sol",
  "abi": [
    {
      "inputs": [],
      "stateMutability": "nonpayable",
      "type": "constructor"
    },
    {
      "inputs": [
        {
          "internalType": "address",
          "name": "owner",
          "type": "address"
        }
      ],
      "name": "OwnableInvalidOwner",
      "type": "error"
    },
    {
      "inputs": [
        {
          "internalType": "address",
          "name": "account",
          "type": "address"
        }
      ],
      "name": "OwnableUnauthorizedAccount",
      "type": "error"
    },
    {
      "anonymous": false,
      "inputs": [
        {
          "indexed": false,
          "internalType": "uint256",
          "name": "tokenId",
          "type": "uint256"
        },
        {
          "indexed": false,
          "internalType": "uint256",
          "name": "price",
          "type": "uint256"
        },
        {
          "indexed": false,
          "internalType": "address",
          "name": "buyer",
          "type": "address"
        }
      ],
      "name": "Bought",
      "type": "event"
    },
    {
      "anonymous": false,
      "inputs": [
        {
          "indexed": false,
          "internalType": "uint256",
          "name": "tokenId",
          "type": "uint256"
        },
        {
          "indexed": false,
          "internalType": "address",
          "name": "seller",
          "type": "address"
        }
      ],
      "name": "Cancelled",
      "type": "event"
    },
    {
      "anonymous": false,
      "inputs": [
        {
          "indexed": false,
          "internalType": "uint256",
          "name": "tokenId",
          "type": "uint256"
        },
        {
          "indexed": false,
          "internalType": "uint256",
          "name": "price",
          "type": "uint256"
        },
        {
          "indexed": false,
          "internalType": "address",
          "name": "seller",
          "type": "address"
        }
      ],
      "name": "Listed",
      "type": "event"
    },
    {
      "anonymous": false,
      "inputs": [
        {
          "indexed": false,
          "internalType": "uint256",
          "name": "tokenId",
          "type": "uint256"
        },
        {
          "indexed": false,
          "internalType": "address",
          "name": "owner",
          "type": "address"
        }
      ],
      "name": "Minted",
      "type": "event"
    },
    {
      "anonymous": false,
      "inputs": [
        {
          "indexed": true,
          "internalType": "address",
          "name": "previousOwner",
          "type": "address"
        },
        {
          "indexed": true,
          "internalType": "address",
          "name": "newOwner",
          "type": "address"
        }
      ],
      "name": "OwnershipTransferred",
      "type": "event"
    },
    {
      "inputs": [
        {
          "internalType": "uint256",
          "name": "tokenId",
          "type": "uint256"
        }
      ],
      "name": "buyNFT",
      "outputs": [],
      "stateMutability": "payable",
      "type": "function"
    },
    {
      "inputs": [
        {
          "internalType": "uint256",
          "name": "tokenId",
          "type": "uint256"
        }
      ],
      "name": "cancelListing",
      "outputs": [],
      "stateMutability": "nonpayable",
      "type": "function"
    },
    {
      "inputs": [
        {
          "internalType": "uint256",
          "name": "tokenId",
          "type": "uint256"
        }
      ],
      "name": "getListing",
      "outputs": [
        {
          "internalType": "uint256",
          "name": "",
          "type": "uint256"
        },
        {
          "internalType": "address",
          "name": "",
          "type": "address"
        }
      ],
      "stateMutability": "view",
      "type": "function"
    },
    {
      "inputs": [
        {
          "internalType": "uint256",
          "name": "tokenId",
          "type": "uint256"
        },
        {
          "internalType": "uint256",
          "name": "price",
          "type": "uint256"
        }
      ],
      "name": "listNFT",
      "outputs": [],
      "stateMutability": "nonpayable",
      "type": "function"
    },
    {
      "inputs": [
        {
          "internalType": "address",
          "name": "to",
          "type": "address"
        },
        {
          "internalType": "string",
          "name": "tokenURI",
          "type": "string"
        }
      ],
      "name": "mint",
      "outputs": [
        {
          "internalType": "uint256",
          "name": "",
          "type": "uint256"
        }
      ],
      "stateMutability": "nonpayable",
      "type": "function"
    },
    {
      "inputs": [
        {
          "internalType": "string",
          "name": "tokenURI",
          "type": "string"
        },
        {
          "internalType": "uint256",
          "name": "price",
          "type": "uint256"
        }
      ],
      "name": "mintAndList",
      "outputs": [],
      "stateMutability": "nonpayable",
      "type": "function"
    },
    {
      "inputs": [],
      "name": "owner",
      "outputs": [
        {
          "internalType": "address",
          "name": "",
          "type": "address"
        }
      ],
      "stateMutability": "view",
      "type": "function"
    },
    {
      "inputs": [],
      "name": "renounceOwnership",
      "outputs": [],
      "stateMutability": "nonpayable",
      "type": "function"
    },
    {
      "inputs": [
        {
          "internalType": "address",
          "name": "newOwner",
          "type": "address"
        }
      ],
      "name": "transferOwnership",
      "outputs": [],
      "stateMutability": "nonpayable",
      "type": "function"
    },
    {
      "inputs": [
        {
          "internalType": "uint8",
          "name": "feePercentage",
          "type": "uint8"
        }
      ],
      "name": "updateFeePercentage",
      "outputs": [],
      "stateMutability": "nonpayable",
      "type": "function"
    },
    {
      "inputs": [],
      "name": "withdrawFunds",
      "outputs": [],
      "stateMutability": "nonpayable",
      "type": "function"
    }
  ],
  "bytecode": "0x60a06040526005600260006101000a81548160ff021916908360ff1602179055503480156200002d57600080fd5b5033600073ffffffffffffffffffffffffffffffffffffffff168173ffffffffffffffffffffffffffffffffffffffff1603620000a45760006040517f1e4fbdf70000000000000000000000000000000000000000000000000000000081526004016200009b91906200023f565b60405180910390fd5b620000b5816200012860201b60201c565b5030604051620000c590620001ec565b620000d191906200023f565b604051809103906000f080158015620000ee573d6000803e3d6000fd5b5073ffffffffffffffffffffffffffffffffffffffff1660808173ffffffffffffffffffffffffffffffffffffffff16815250506200025c565b60008060009054906101000a900473ffffffffffffffffffffffffffffffffffffffff169050816000806101000a81548173ffffffffffffffffffffffffffffffffffffffff021916908373ffffffffffffffffffffffffffffffffffffffff1602179055508173ffffffffffffffffffffffffffffffffffffffff168173ffffffffffffffffffffffffffffffffffffffff167f8be0079c531659141344cd1fd0a4f28419497f9722a3daafe3b4186f6b6457e060405160405180910390a35050565b612a4b8062001dff83390190565b600073ffffffffffffffffffffffffffffffffffffffff82169050919050565b60006200022782620001fa565b9050919050565b62000239816200021a565b82525050565b60006020820190506200025660008301846200022e565b92915050565b608051611b646200029b6000396000818161069f01528181610ad001528181610c6901528181610e0001528181610e8b0152610fef0152611b646000f3fe60806040526004361061009c5760003560e01c8063715018a611610064578063715018a6146101645780638da5cb5b1461017b57806394383f14146101a6578063d0def521146101cf578063d3d1b2e11461020c578063f2fde38b146102355761009c565b8063085e3d8c146100a1578063107a274a146100ca57806324600fc314610108578063305a67a81461011f57806351ed828814610148575b600080fd5b3480156100ad57600080fd5b506100c860048036038101906100c39190611411565b61025e565b005b3480156100d657600080fd5b506100f160048036038101906100ec9190611474565b6102e7565b6040516100ff9291906114f1565b60405180910390f35b34801561011457600080fd5b5061011d610380565b005b34801561012b57600080fd5b5061014660048036038101906101419190611474565b6104f0565b005b610162600480360381019061015d9190611474565b610772565b005b34801561017057600080fd5b50610179610bac565b005b34801561018757600080fd5b50610190610bc0565b60405161019d919061151a565b60405180910390f35b3480156101b257600080fd5b506101cd60048036038101906101c89190611535565b610be9565b005b3480156101db57600080fd5b506101f660048036038101906101f191906116e7565b610fea565b6040516102039190611743565b60405180910390f35b34801561021857600080fd5b50610233600480360381019061022e919061175e565b6110d0565b005b34801561024157600080fd5b5061025c600480360381019061025791906117ba565b6110ed565b005b610266611173565b60648160ff161115604051806060016040528060308152602001611add60309139906102c8576040517f08c379a00000000000000000000000000000000000000000000000000000000081526004016102bf9190611866565b60405180910390fd5b5080600260006101000a81548160ff021916908360ff16021790555050565b600080600060016000858152602001908152602001600020604051806040016040529081600082015481526020016001820160009054906101000a900473ffffffffffffffffffffffffffffffffffffffff1673ffffffffffffffffffffffffffffffffffffffff1673ffffffffffffffffffffffffffffffffffffffff16815250509050806000015181602001519250925050915091565b610388611173565b6000479050600081116040518060400160405280601e81526020017f42616c616e6365206d7573742062652067726561746572207468616e2030000081525090610408576040517f08c379a00000000000000000000000000000000000000000000000000000000081526004016103ff9190611866565b60405180910390fd5b5060003373ffffffffffffffffffffffffffffffffffffffff168260405161042f906118b9565b60006040518083038185875af1925050503d806000811461046c576040519150601f19603f3d011682016040523d82523d6000602084013e610471565b606091505b50509050806104ec576040518060400160405280600f81526020017f5472616e73666572206661696c656400000000000000000000000000000000008152506040517f08c379a00000000000000000000000000000000000000000000000000000000081526004016104e39190611866565b60405180910390fd5b5050565b600060016000838152602001908152602001600020604051806040016040529081600082015481526020016001820160009054906101000a900473ffffffffffffffffffffffffffffffffffffffff1673ffffffffffffffffffffffffffffffffffffffff1673ffffffffffffffffffffffffffffffffffffffff1681525050905060008160000151116040518060400160405280601381526020017f4e4654206973206e6f7420666f722073616c6500000000000000000000000000815250906105f1576040517f08c379a00000000000000000000000000000000000000000000000000000000081526004016105e89190611866565b60405180910390fd5b503373ffffffffffffffffffffffffffffffffffffffff16816020015173ffffffffffffffffffffffffffffffffffffffff16146040518060400160405280602081526020017f596f75277265206e6f74207468652073656c6c6572206f6620746865204e46548152509061069c576040517f08c379a00000000000000000000000000000000000000000000000000000000081526004016106939190611866565b60405180910390fd5b507f000000000000000000000000000000000000000000000000000000000000000073ffffffffffffffffffffffffffffffffffffffff166323b872dd3033856040518463ffffffff1660e01b81526004016106fa939291906118ce565b600060405180830381600087803b15801561071457600080fd5b505af1158015610728573d6000803e3d6000fd5b50505050610735826111fa565b7f26deca31ff8139a06c52453ce8985d34f7648a6d9af1d283c4063d052c355a0f82336040516107669291906114f1565b60405180910390a15050565b600060016000838152602001908152602001600020604051806040016040529081600082015481526020016001820160009054906101000a900473ffffffffffffffffffffffffffffffffffffffff1673ffffffffffffffffffffffffffffffffffffffff1673ffffffffffffffffffffffffffffffffffffffff1681525050905060008160000151116040518060400160405280601381526020017f4e4654206973206e6f7420666f722073616c650000000000000000000000000081525090610873576040517f08c379a000000000000000000000000000000000000000000000000000000000815260040161086a9190611866565b60405180910390fd5b50806000015134146040518060600160405280602a8152602001611ab3602a9139906108d5576040517f08c379a00000000000000000000000000000000000000000000000000000000081526004016108cc9190611866565b60405180910390fd5b50806020015173ffffffffffffffffffffffffffffffffffffffff163373ffffffffffffffffffffffffffffffffffffffff1614156040518060400160405280601f81526020017f546865206f776e65722063616e27742062757920686973206f776e204e46540081525090610981576040517f08c379a00000000000000000000000000000000000000000000000000000000081526004016109789190611866565b60405180910390fd5b506000806109b18360000151600260009054906101000a900460ff1660646109a99190611934565b60ff1661126f565b91509150816109c3576109c2611969565b5b6109d181606460ff166112c2565b8092508193505050816109e7576109e6611969565b5b6000836020015173ffffffffffffffffffffffffffffffffffffffff1682604051610a11906118b9565b60006040518083038185875af1925050503d8060008114610a4e576040519150601f19603f3d011682016040523d82523d6000602084013e610a53565b606091505b5050905080610ace576040518060400160405280600f81526020017f5472616e73666572206661696c656400000000000000000000000000000000008152506040517f08c379a0000000000000000000000000000000000000000000000000000000008152600401610ac59190611866565b60405180910390fd5b7f000000000000000000000000000000000000000000000000000000000000000073ffffffffffffffffffffffffffffffffffffffff166323b872dd3033886040518463ffffffff1660e01b8152600401610b2b939291906118ce565b600060405180830381600087803b158015610b4557600080fd5b505af1158015610b59573d6000803e3d6000fd5b50505050610b66856111fa565b7fa2a8034590a15fe810e9813d736096c0a03b3236cecb34b5b9f687ed67a6a62485856000015133604051610b9d93929190611998565b60405180910390a15050505050565b610bb4611173565b610bbe60006112f8565b565b60008060009054906101000a900473ffffffffffffffffffffffffffffffffffffffff16905090565b600081116040518060400160405280601c81526020017f5072696365206d7573742062652067726561746572207468616e20300000000081525090610c64576040517f08c379a0000000000000000000000000000000000000000000000000000000008152600401610c5b9190611866565b60405180910390fd5b5060007f000000000000000000000000000000000000000000000000000000000000000073ffffffffffffffffffffffffffffffffffffffff16636352211e846040518263ffffffff1660e01b8152600401610cc09190611743565b602060405180830381865afa925050508015610cfa57506040513d601f19601f82011682018060405250810190610cf791906119e4565b60015b610d5357604051806060016040528060228152602001611b0d602291396040517f08c379a0000000000000000000000000000000000000000000000000000000008152600401610d4a9190611866565b60405180910390fd5b809150503373ffffffffffffffffffffffffffffffffffffffff168173ffffffffffffffffffffffffffffffffffffffff16146040518060400160405280601f81526020017f596f75277265206e6f7420746865206f776e6572206f6620746865204e46540081525090610dfd576040517f08c379a0000000000000000000000000000000000000000000000000000000008152600401610df49190611866565b60405180910390fd5b507f000000000000000000000000000000000000000000000000000000000000000073ffffffffffffffffffffffffffffffffffffffff1663f658518a846040518263ffffffff1660e01b8152600401610e579190611743565b600060405180830381600087803b158015610e7157600080fd5b505af1158015610e85573d6000803e3d6000fd5b505050507f000000000000000000000000000000000000000000000000000000000000000073ffffffffffffffffffffffffffffffffffffffff166323b872dd3330866040518463ffffffff1660e01b8152600401610ee6939291906118ce565b600060405180830381600087803b158015610f0057600080fd5b505af1158015610f14573d6000803e3d6000fd5b5050505060405180604001604052808381526020013373ffffffffffffffffffffffffffffffffffffffff16815250600160008581526020019081526020016000206000820151816000015560208201518160010160006101000a81548173ffffffffffffffffffffffffffffffffffffffff021916908373ffffffffffffffffffffffffffffffffffffffff1602179055509050507fb4e5606a376800f822ae7ce93010dddb4ebd38ca6db1bdbc2d0a1de90c9079e4838333604051610fdd93929190611998565b60405180910390a1505050565b6000807f000000000000000000000000000000000000000000000000000000000000000073ffffffffffffffffffffffffffffffffffffffff1663d0def52185856040518363ffffffff1660e01b8152600401611048929190611a11565b6020604051808303816000875af1158015611067573d6000803e3d6000fd5b505050506040513d601f19601f8201168201806040525081019061108b9190611a56565b90507fb9203d657e9c0ec8274c818292ab0f58b04e1970050716891770eb1bab5d655e81856040516110be9291906114f1565b60405180910390a18091505092915050565b60006110dc3384610fea565b90506110e88183610be9565b505050565b6110f5611173565b600073ffffffffffffffffffffffffffffffffffffffff168173ffffffffffffffffffffffffffffffffffffffff16036111675760006040517f1e4fbdf700000000000000000000000000000000000000000000000000000000815260040161115e919061151a565b60405180910390fd5b611170816112f8565b50565b61117b6113bc565b73ffffffffffffffffffffffffffffffffffffffff16611199610bc0565b73ffffffffffffffffffffffffffffffffffffffff16146111f8576111bc6113bc565b6040517f118cdaa70000000000000000000000000000000000000000000000000000000081526004016111ef919061151a565b60405180910390fd5b565b6000600160008381526020019081526020016000206000018190555060006001600083815260200190815260200160002060010160006101000a81548173ffffffffffffffffffffffffffffffffffffffff021916908373ffffffffffffffffffffffffffffffffffffffff16021790555050565b600080600084036112875760016000915091506112bb565b600083850290508385828161129f5761129e611a83565b5b04146112b25760008092509250506112bb565b60018192509250505b9250929050565b600080600083036112d957600080915091506112f1565b60018385816112eb576112ea611a83565b5b04915091505b9250929050565b60008060009054906101000a900473ffffffffffffffffffffffffffffffffffffffff169050816000806101000a81548173ffffffffffffffffffffffffffffffffffffffff021916908373ffffffffffffffffffffffffffffffffffffffff1602179055508173ffffffffffffffffffffffffffffffffffffffff168173ffffffffffffffffffffffffffffffffffffffff167f8be0079c531659141344cd1fd0a4f28419497f9722a3daafe3b4186f6b6457e060405160405180910390a35050565b600033905090565b6000604051905090565b600080fd5b600080fd5b600060ff82169050919050565b6113ee816113d8565b81146113f957600080fd5b50565b60008135905061140b816113e5565b92915050565b600060208284031215611427576114266113ce565b5b6000611435848285016113fc565b91505092915050565b6000819050919050565b6114518161143e565b811461145c57600080fd5b50565b60008135905061146e81611448565b92915050565b60006020828403121561148a576114896113ce565b5b60006114988482850161145f565b91505092915050565b6114aa8161143e565b82525050565b600073ffffffffffffffffffffffffffffffffffffffff82169050919050565b60006114db826114b0565b9050919050565b6114eb816114d0565b82525050565b600060408201905061150660008301856114a1565b61151360208301846114e2565b9392505050565b600060208201905061152f60008301846114e2565b92915050565b6000806040838503121561154c5761154b6113ce565b5b600061155a8582860161145f565b925050602061156b8582860161145f565b9150509250929050565b61157e816114d0565b811461158957600080fd5b50565b60008135905061159b81611575565b92915050565b600080fd5b600080fd5b6000601f19601f8301169050919050565b7f4e487b7100000000000000000000000000000000000000000000000000000000600052604160045260246000fd5b6115f4826115ab565b810181811067ffffffffffffffff82111715611613576116126115bc565b5b80604052505050565b60006116266113c4565b905061163282826115eb565b919050565b600067ffffffffffffffff821115611652576116516115bc565b5b61165b826115ab565b9050602081019050919050565b82818337600083830152505050565b600061168a61168584611637565b61161c565b9050828152602081018484840111156116a6576116a56115a6565b5b6116b1848285611668565b509392505050565b600082601f8301126116ce576116cd6115a1565b5b81356116de848260208601611677565b91505092915050565b600080604083850312156116fe576116fd6113ce565b5b600061170c8582860161158c565b925050602083013567ffffffffffffffff81111561172d5761172c6113d3565b5b611739858286016116b9565b9150509250929050565b600060208201905061175860008301846114a1565b92915050565b60008060408385031215611775576117746113ce565b5b600083013567ffffffffffffffff811115611793576117926113d3565b5b61179f858286016116b9565b92505060206117b08582860161145f565b9150509250929050565b6000602082840312156117d0576117cf6113ce565b5b60006117de8482850161158c565b91505092915050565b600081519050919050565b600082825260208201905092915050565b60005b83811015611821578082015181840152602081019050611806565b60008484015250505050565b6000611838826117e7565b61184281856117f2565b9350611852818560208601611803565b61185b816115ab565b840191505092915050565b60006020820190508181036000830152611880818461182d565b905092915050565b600081905092915050565b50565b60006118a3600083611888565b91506118ae82611893565b600082019050919050565b60006118c482611896565b9150819050919050565b60006060820190506118e360008301866114e2565b6118f060208301856114e2565b6118fd60408301846114a1565b949350505050565b7f4e487b7100000000000000000000000000000000000000000000000000000000600052601160045260246000fd5b600061193f826113d8565b915061194a836113d8565b9250828203905060ff81111561196357611962611905565b5b92915050565b7f4e487b7100000000000000000000000000000000000000000000000000000000600052600160045260246000fd5b60006060820190506119ad60008301866114a1565b6119ba60208301856114a1565b6119c760408301846114e2565b949350505050565b6000815190506119de81611575565b92915050565b6000602082840312156119fa576119f96113ce565b5b6000611a08848285016119cf565b91505092915050565b6000604082019050611a2660008301856114e2565b8181036020830152611a38818461182d565b90509392505050565b600081519050611a5081611448565b92915050565b600060208284031215611a6c57611a6b6113ce565b5b6000611a7a84828501611a41565b91505092915050565b7f4e487b7100000000000000000000000000000000000000000000000000000000600052601260045260246000fdfe5468652070726963652070616964206973206e6f74207468652076616c7565206f6620746865204e46544665652070657263656e74616765206d757374206265206c657373207468616e206f7220657175616c20746f203130304e4654206973206e6f742070726573656e7420696e2074686520636f6e7472616374a2646970667358221220ae408b9d49b43aa5ba9452c41c8ca21a05490f9dc6d4ce92601a426724b0426f64736f6c6343000818003360a06040523480156200001157600080fd5b5060405162002a4b38038062002a4b83398181016040528101906200003791906200016e565b6040518060400160405280600881526020017f4e4654546f6b656e0000000000000000000000000000000000000000000000008152506040518060400160405280600381526020017f4e465400000000000000000000000000000000000000000000000000000000008152508160009081620000b491906200041a565b508060019081620000c691906200041a565b5050508073ffffffffffffffffffffffffffffffffffffffff1660808173ffffffffffffffffffffffffffffffffffffffff16815250505062000501565b600080fd5b600073ffffffffffffffffffffffffffffffffffffffff82169050919050565b6000620001368262000109565b9050919050565b620001488162000129565b81146200015457600080fd5b50565b60008151905062000168816200013d565b92915050565b60006020828403121562000187576200018662000104565b5b6000620001978482850162000157565b91505092915050565b600081519050919050565b7f4e487b7100000000000000000000000000000000000000000000000000000000600052604160045260246000fd5b7f4e487b7100000000000000000000000000000000000000000000000000000000600052602260045260246000fd5b600060028204905060018216806200022257607f821691505b602082108103620002385762000237620001da565b5b50919050565b60008190508160005260206000209050919050565b60006020601f8301049050919050565b600082821b905092915050565b600060088302620002a27fffffffffffffffffffffffffffffffffffffffffffffffffffffffffffffffff8262000263565b620002ae868362000263565b95508019841693508086168417925050509392505050565b6000819050919050565b6000819050919050565b6000620002fb620002f5620002ef84620002c6565b620002d0565b620002c6565b9050919050565b6000819050919050565b6200031783620002da565b6200032f620003268262000302565b84845462000270565b825550505050565b600090565b6200034662000337565b620003538184846200030c565b505050565b5b818110156200037b576200036f6000826200033c565b60018101905062000359565b5050565b601f821115620003ca5762000394816200023e565b6200039f8462000253565b81016020851015620003af578190505b620003c7620003be8562000253565b83018262000358565b50505b505050565b600082821c905092915050565b6000620003ef60001984600802620003cf565b1980831691505092915050565b60006200040a8383620003dc565b9150826002028217905092915050565b6200042582620001a0565b67ffffffffffffffff811115620004415762000440620001ab565b5b6200044d825462000209565b6200045a8282856200037f565b600060209050601f8311600181146200049257600084156200047d578287015190505b620004898582620003fc565b865550620004f9565b601f198416620004a2866200023e565b60005b82811015620004cc57848901518255600182019150602085019450602081019050620004a5565b86831015620004ec5784890151620004e8601f891682620003dc565b8355505b6001600288020188555050505b505050505050565b60805161252762000524600039600081816108e9015261099601526125276000f3fe608060405234801561001057600080fd5b50600436106100f55760003560e01c806370a0823111610097578063c87b56dd11610066578063c87b56dd14610282578063d0def521146102b2578063e985e9c5146102e2578063f658518a14610312576100f5565b806370a08231146101fc57806395d89b411461022c578063a22cb4651461024a578063b88d4fde14610266576100f5565b8063095ea7b3116100d3578063095ea7b31461017857806323b872dd1461019457806342842e0e146101b05780636352211e146101cc576100f5565b806301ffc9a7146100fa57806306fdde031461012a578063081812fc14610148575b600080fd5b610114600480360381019061010f9190611957565b61032e565b604051610121919061199f565b60405180910390f35b61013261038f565b60405161013f9190611a4a565b60405180910390f35b610162600480360381019061015d9190611aa2565b610421565b60405161016f9190611b10565b60405180910390f35b610192600480360381019061018d9190611b57565b61043d565b005b6101ae60048036038101906101a99190611b97565b610453565b005b6101ca60048036038101906101c59190611b97565b610555565b005b6101e660048036038101906101e19190611aa2565b610575565b6040516101f39190611b10565b60405180910390f35b61021660048036038101906102119190611bea565b610587565b6040516102239190611c26565b60405180910390f35b610234610641565b6040516102419190611a4a565b60405180910390f35b610264600480360381019061025f9190611c6d565b6106d3565b005b610280600480360381019061027b9190611de2565b6106e9565b005b61029c60048036038101906102979190611aa2565b610706565b6040516102a99190611a4a565b60405180910390f35b6102cc60048036038101906102c79190611f06565b610819565b6040516102d99190611c26565b60405180910390f35b6102fc60048036038101906102f79190611f62565b610853565b604051610309919061199f565b60405180910390f35b61032c60048036038101906103279190611aa2565b6108e7565b005b6000634906490660e01b7bffffffffffffffffffffffffffffffffffffffffffffffffffffffff1916827bffffffffffffffffffffffffffffffffffffffffffffffffffffffff191614806103885750610387826109c9565b5b9050919050565b60606000805461039e90611fd1565b80601f01602080910402602001604051908101604052809291908181526020018280546103ca90611fd1565b80156104175780601f106103ec57610100808354040283529160200191610417565b820191906000526020600020905b8154815290600101906020018083116103fa57829003601f168201915b5050505050905090565b600061042c82610aab565b5061043682610b33565b9050919050565b61044f828261044a610b70565b610b78565b5050565b600073ffffffffffffffffffffffffffffffffffffffff168273ffffffffffffffffffffffffffffffffffffffff16036104c55760006040517f64a0ae920000000000000000000000000000000000000000000000000000000081526004016104bc9190611b10565b60405180910390fd5b60006104d983836104d4610b70565b610b8a565b90508373ffffffffffffffffffffffffffffffffffffffff168173ffffffffffffffffffffffffffffffffffffffff161461054f578382826040517f64283d7b00000000000000000000000000000000000000000000000000000000815260040161054693929190612002565b60405180910390fd5b50505050565b610570838383604051806020016040528060008152506106e9565b505050565b600061058082610aab565b9050919050565b60008073ffffffffffffffffffffffffffffffffffffffff168273ffffffffffffffffffffffffffffffffffffffff16036105fa5760006040517f89c62b640000000000000000000000000000000000000000000000000000000081526004016105f19190611b10565b60405180910390fd5b600360008373ffffffffffffffffffffffffffffffffffffffff1673ffffffffffffffffffffffffffffffffffffffff168152602001908152602001600020549050919050565b60606001805461065090611fd1565b80601f016020809104026020016040519081016040528092919081815260200182805461067c90611fd1565b80156106c95780601f1061069e576101008083540402835291602001916106c9565b820191906000526020600020905b8154815290600101906020018083116106ac57829003601f168201915b5050505050905090565b6106e56106de610b70565b8383610da4565b5050565b6106f4848484610453565b61070084848484610f13565b50505050565b606061071182610aab565b50600060066000848152602001908152602001600020805461073290611fd1565b80601f016020809104026020016040519081016040528092919081815260200182805461075e90611fd1565b80156107ab5780601f10610780576101008083540402835291602001916107ab565b820191906000526020600020905b81548152906001019060200180831161078e57829003601f168201915b5050505050905060006107bc6110ca565b905060008151036107d1578192505050610814565b6000825111156108065780826040516020016107ee929190612075565b60405160208183030381529060405292505050610814565b61080f846110e1565b925050505b919050565b6000806007600081548092919061082f906120c8565b91905055905061083f848261114a565b6108498184611168565b8091505092915050565b6000600560008473ffffffffffffffffffffffffffffffffffffffff1673ffffffffffffffffffffffffffffffffffffffff16815260200190815260200160002060008373ffffffffffffffffffffffffffffffffffffffff1673ffffffffffffffffffffffffffffffffffffffff16815260200190815260200160002060009054906101000a900460ff16905092915050565b7f000000000000000000000000000000000000000000000000000000000000000073ffffffffffffffffffffffffffffffffffffffff163373ffffffffffffffffffffffffffffffffffffffff16146040518060600160405280602881526020016124ca6028913990610990576040517f08c379a00000000000000000000000000000000000000000000000000000000081526004016109879190611a4a565b60405180910390fd5b506109c67f0000000000000000000000000000000000000000000000000000000000000000826109bf84610575565b60016111c4565b50565b60007f80ac58cd000000000000000000000000000000000000000000000000000000007bffffffffffffffffffffffffffffffffffffffffffffffffffffffff1916827bffffffffffffffffffffffffffffffffffffffffffffffffffffffff19161480610a9457507f5b5e139f000000000000000000000000000000000000000000000000000000007bffffffffffffffffffffffffffffffffffffffffffffffffffffffff1916827bffffffffffffffffffffffffffffffffffffffffffffffffffffffff1916145b80610aa45750610aa382611389565b5b9050919050565b600080610ab7836113f3565b9050600073ffffffffffffffffffffffffffffffffffffffff168173ffffffffffffffffffffffffffffffffffffffff1603610b2a57826040517f7e273289000000000000000000000000000000000000000000000000000000008152600401610b219190611c26565b60405180910390fd5b80915050919050565b60006004600083815260200190815260200160002060009054906101000a900473ffffffffffffffffffffffffffffffffffffffff169050919050565b600033905090565b610b8583838360016111c4565b505050565b600080610b96846113f3565b9050600073ffffffffffffffffffffffffffffffffffffffff168373ffffffffffffffffffffffffffffffffffffffff1614610bd857610bd7818486611430565b5b600073ffffffffffffffffffffffffffffffffffffffff168173ffffffffffffffffffffffffffffffffffffffff1614610c6957610c1a6000856000806111c4565b6001600360008373ffffffffffffffffffffffffffffffffffffffff1673ffffffffffffffffffffffffffffffffffffffff168152602001908152602001600020600082825403925050819055505b600073ffffffffffffffffffffffffffffffffffffffff168573ffffffffffffffffffffffffffffffffffffffff1614610cec576001600360008773ffffffffffffffffffffffffffffffffffffffff1673ffffffffffffffffffffffffffffffffffffffff168152602001908152602001600020600082825401925050819055505b846002600086815260200190815260200160002060006101000a81548173ffffffffffffffffffffffffffffffffffffffff021916908373ffffffffffffffffffffffffffffffffffffffff160217905550838573ffffffffffffffffffffffffffffffffffffffff168273ffffffffffffffffffffffffffffffffffffffff167fddf252ad1be2c89b69c2b068fc378daa952ba7f163c4a11628f55a4df523b3ef60405160405180910390a4809150509392505050565b600073ffffffffffffffffffffffffffffffffffffffff168273ffffffffffffffffffffffffffffffffffffffff1603610e1557816040517f5b08ba18000000000000000000000000000000000000000000000000000000008152600401610e0c9190611b10565b60405180910390fd5b80600560008573ffffffffffffffffffffffffffffffffffffffff1673ffffffffffffffffffffffffffffffffffffffff16815260200190815260200160002060008473ffffffffffffffffffffffffffffffffffffffff1673ffffffffffffffffffffffffffffffffffffffff16815260200190815260200160002060006101000a81548160ff0219169083151502179055508173ffffffffffffffffffffffffffffffffffffffff168373ffffffffffffffffffffffffffffffffffffffff167f17307eab39ab6107e8899845ad3d59bd9653f200f220920489ca2b5937696c3183604051610f06919061199f565b60405180910390a3505050565b60008373ffffffffffffffffffffffffffffffffffffffff163b11156110c4578273ffffffffffffffffffffffffffffffffffffffff1663150b7a02610f57610b70565b8685856040518563ffffffff1660e01b8152600401610f799493929190612165565b6020604051808303816000875af1925050508015610fb557506040513d601f19601f82011682018060405250810190610fb291906121c6565b60015b611039573d8060008114610fe5576040519150601f19603f3d011682016040523d82523d6000602084013e610fea565b606091505b50600081510361103157836040517f64a0ae920000000000000000000000000000000000000000000000000000000081526004016110289190611b10565b60405180910390fd5b805181602001fd5b63150b7a0260e01b7bffffffffffffffffffffffffffffffffffffffffffffffffffffffff1916817bffffffffffffffffffffffffffffffffffffffffffffffffffffffff1916146110c257836040517f64a0ae920000000000000000000000000000000000000000000000000000000081526004016110b99190611b10565b60405180910390fd5b505b50505050565b606060405180602001604052806000815250905090565b60606110ec82610aab565b5060006110f76110ca565b905060008151116111175760405180602001604052806000815250611142565b80611121846114f4565b604051602001611132929190612075565b6040516020818303038152906040525b915050919050565b6111648282604051806020016040528060008152506115c2565b5050565b80600660008481526020019081526020016000209081611188919061239f565b507ff8e1a15aba9398e019f0b49df1a4fde98ee17ae345cb5f6b5e2c27f5033e8ce7826040516111b89190611c26565b60405180910390a15050565b80806111fd5750600073ffffffffffffffffffffffffffffffffffffffff168273ffffffffffffffffffffffffffffffffffffffff1614155b1561133157600061120d84610aab565b9050600073ffffffffffffffffffffffffffffffffffffffff168373ffffffffffffffffffffffffffffffffffffffff161415801561127857508273ffffffffffffffffffffffffffffffffffffffff168173ffffffffffffffffffffffffffffffffffffffff1614155b801561128b57506112898184610853565b155b156112cd57826040517fa9fbf51f0000000000000000000000000000000000000000000000000000000081526004016112c49190611b10565b60405180910390fd5b811561132f57838573ffffffffffffffffffffffffffffffffffffffff168273ffffffffffffffffffffffffffffffffffffffff167f8c5be1e5ebec7d5bd14f71427d1e84f3dd0314c0f7b2291e5b200ac8c7c3b92560405160405180910390a45b505b836004600085815260200190815260200160002060006101000a81548173ffffffffffffffffffffffffffffffffffffffff021916908373ffffffffffffffffffffffffffffffffffffffff16021790555050505050565b60007f01ffc9a7000000000000000000000000000000000000000000000000000000007bffffffffffffffffffffffffffffffffffffffffffffffffffffffff1916827bffffffffffffffffffffffffffffffffffffffffffffffffffffffff1916149050919050565b60006002600083815260200190815260200160002060009054906101000a900473ffffffffffffffffffffffffffffffffffffffff169050919050565b61143b8383836115de565b6114ef57600073ffffffffffffffffffffffffffffffffffffffff168373ffffffffffffffffffffffffffffffffffffffff16036114b057806040517f7e2732890000000000000000000000000000000000000000000000000000000081526004016114a79190611c26565b60405180910390fd5b81816040517f177e802f0000000000000000000000000000000000000000000000000000000081526004016114e6929190612471565b60405180910390fd5b505050565b6060600060016115038461169f565b01905060008167ffffffffffffffff81111561152257611521611cb7565b5b6040519080825280601f01601f1916602001820160405280156115545781602001600182028036833780820191505090505b509050600082602001820190505b6001156115b7578080600190039150507f3031323334353637383961626364656600000000000000000000000000000000600a86061a8153600a85816115ab576115aa61249a565b5b04945060008503611562575b819350505050919050565b6115cc83836117f2565b6115d96000848484610f13565b505050565b60008073ffffffffffffffffffffffffffffffffffffffff168373ffffffffffffffffffffffffffffffffffffffff161415801561169657508273ffffffffffffffffffffffffffffffffffffffff168473ffffffffffffffffffffffffffffffffffffffff16148061165757506116568484610853565b5b8061169557508273ffffffffffffffffffffffffffffffffffffffff1661167d83610b33565b73ffffffffffffffffffffffffffffffffffffffff16145b5b90509392505050565b600080600090507a184f03e93ff9f4daa797ed6e38ed64bf6a1f01000000000000000083106116fd577a184f03e93ff9f4daa797ed6e38ed64bf6a1f01000000000000000083816116f3576116f261249a565b5b0492506040810190505b6d04ee2d6d415b85acef8100000000831061173a576d04ee2d6d415b85acef810000000083816117305761172f61249a565b5b0492506020810190505b662386f26fc10000831061176957662386f26fc10000838161175f5761175e61249a565b5b0492506010810190505b6305f5e1008310611792576305f5e10083816117885761178761249a565b5b0492506008810190505b61271083106117b75761271083816117ad576117ac61249a565b5b0492506004810190505b606483106117da57606483816117d0576117cf61249a565b5b0492506002810190505b600a83106117e9576001810190505b80915050919050565b600073ffffffffffffffffffffffffffffffffffffffff168273ffffffffffffffffffffffffffffffffffffffff16036118645760006040517f64a0ae9200000000000000000000000000000000000000000000000000000000815260040161185b9190611b10565b60405180910390fd5b600061187283836000610b8a565b9050600073ffffffffffffffffffffffffffffffffffffffff168173ffffffffffffffffffffffffffffffffffffffff16146118e65760006040517f73c6ac6e0000000000000000000000000000000000000000000000000000000081526004016118dd9190611b10565b60405180910390fd5b505050565b6000604051905090565b600080fd5b600080fd5b60007fffffffff0000000000000000000000000000000000000000000000000000000082169050919050565b611934816118ff565b811461193f57600080fd5b50565b6000813590506119518161192b565b92915050565b60006020828403121561196d5761196c6118f5565b5b600061197b84828501611942565b91505092915050565b60008115159050919050565b61199981611984565b82525050565b60006020820190506119b46000830184611990565b92915050565b600081519050919050565b600082825260208201905092915050565b60005b838110156119f45780820151818401526020810190506119d9565b60008484015250505050565b6000601f19601f8301169050919050565b6000611a1c826119ba565b611a2681856119c5565b9350611a368185602086016119d6565b611a3f81611a00565b840191505092915050565b60006020820190508181036000830152611a648184611a11565b905092915050565b6000819050919050565b611a7f81611a6c565b8114611a8a57600080fd5b50565b600081359050611a9c81611a76565b92915050565b600060208284031215611ab857611ab76118f5565b5b6000611ac684828501611a8d565b91505092915050565b600073ffffffffffffffffffffffffffffffffffffffff82169050919050565b6000611afa82611acf565b9050919050565b611b0a81611aef565b82525050565b6000602082019050611b256000830184611b01565b92915050565b611b3481611aef565b8114611b3f57600080fd5b50565b600081359050611b5181611b2b565b92915050565b60008060408385031215611b6e57611b6d6118f5565b5b6000611b7c85828601611b42565b9250506020611b8d85828601611a8d565b9150509250929050565b600080600060608486031215611bb057611baf6118f5565b5b6000611bbe86828701611b42565b9350506020611bcf86828701611b42565b9250506040611be086828701611a8d565b9150509250925092565b600060208284031215611c0057611bff6118f5565b5b6000611c0e84828501611b42565b91505092915050565b611c2081611a6c565b82525050565b6000602082019050611c3b6000830184611c17565b92915050565b611c4a81611984565b8114611c5557600080fd5b50565b600081359050611c6781611c41565b92915050565b60008060408385031215611c8457611c836118f5565b5b6000611c9285828601611b42565b9250506020611ca385828601611c58565b9150509250929050565b600080fd5b600080fd5b7f4e487b7100000000000000000000000000000000000000000000000000000000600052604160045260246000fd5b611cef82611a00565b810181811067ffffffffffffffff82111715611d0e57611d0d611cb7565b5b80604052505050565b6000611d216118eb565b9050611d2d8282611ce6565b919050565b600067ffffffffffffffff821115611d4d57611d4c611cb7565b5b611d5682611a00565b9050602081019050919050565b82818337600083830152505050565b6000611d85611d8084611d32565b611d17565b905082815260208101848484011115611da157611da0611cb2565b5b611dac848285611d63565b509392505050565b600082601f830112611dc957611dc8611cad565b5b8135611dd9848260208601611d72565b91505092915050565b60008060008060808587031215611dfc57611dfb6118f5565b5b6000611e0a87828801611b42565b9450506020611e1b87828801611b42565b9350506040611e2c87828801611a8d565b925050606085013567ffffffffffffffff811115611e4d57611e4c6118fa565b5b611e5987828801611db4565b91505092959194509250565b600067ffffffffffffffff821115611e8057611e7f611cb7565b5b611e8982611a00565b9050602081019050919050565b6000611ea9611ea484611e65565b611d17565b905082815260208101848484011115611ec557611ec4611cb2565b5b611ed0848285611d63565b509392505050565b600082601f830112611eed57611eec611cad565b5b8135611efd848260208601611e96565b91505092915050565b60008060408385031215611f1d57611f1c6118f5565b5b6000611f2b85828601611b42565b925050602083013567ffffffffffffffff811115611f4c57611f4b6118fa565b5b611f5885828601611ed8565b9150509250929050565b60008060408385031215611f7957611f786118f5565b5b6000611f8785828601611b42565b9250506020611f9885828601611b42565b9150509250929050565b7f4e487b7100000000000000000000000000000000000000000000000000000000600052602260045260246000fd5b60006002820490506001821680611fe957607f821691505b602082108103611ffc57611ffb611fa2565b5b50919050565b60006060820190506120176000830186611b01565b6120246020830185611c17565b6120316040830184611b01565b949350505050565b600081905092915050565b600061204f826119ba565b6120598185612039565b93506120698185602086016119d6565b80840191505092915050565b60006120818285612044565b915061208d8284612044565b91508190509392505050565b7f4e487b7100000000000000000000000000000000000000000000000000000000600052601160045260246000fd5b60006120d382611a6c565b91507fffffffffffffffffffffffffffffffffffffffffffffffffffffffffffffffff820361210557612104612099565b5b600182019050919050565b600081519050919050565b600082825260208201905092915050565b600061213782612110565b612141818561211b565b93506121518185602086016119d6565b61215a81611a00565b840191505092915050565b600060808201905061217a6000830187611b01565b6121876020830186611b01565b6121946040830185611c17565b81810360608301526121a6818461212c565b905095945050505050565b6000815190506121c08161192b565b92915050565b6000602082840312156121dc576121db6118f5565b5b60006121ea848285016121b1565b91505092915050565b60008190508160005260206000209050919050565b60006020601f8301049050919050565b600082821b905092915050565b6000600883026122557fffffffffffffffffffffffffffffffffffffffffffffffffffffffffffffffff82612218565b61225f8683612218565b95508019841693508086168417925050509392505050565b6000819050919050565b600061229c61229761229284611a6c565b612277565b611a6c565b9050919050565b6000819050919050565b6122b683612281565b6122ca6122c2826122a3565b848454612225565b825550505050565b600090565b6122df6122d2565b6122ea8184846122ad565b505050565b5b8181101561230e576123036000826122d7565b6001810190506122f0565b5050565b601f82111561235357612324816121f3565b61232d84612208565b8101602085101561233c578190505b61235061234885612208565b8301826122ef565b50505b505050565b600082821c905092915050565b600061237660001984600802612358565b1980831691505092915050565b600061238f8383612365565b9150826002028217905092915050565b6123a8826119ba565b67ffffffffffffffff8111156123c1576123c0611cb7565b5b6123cb8254611fd1565b6123d6828285612312565b600060209050601f83116001811461240957600084156123f7578287015190505b6124018582612383565b865550612469565b601f198416612417866121f3565b60005b8281101561243f5784890151825560018201915060208501945060208101905061241a565b8683101561245c5784890151612458601f891682612365565b8355505b6001600288020188555050505b505050505050565b60006040820190506124866000830185611b01565b6124936020830184611c17565b9392505050565b7f4e487b7100000000000000000000000000000000000000000000000000000000600052601260045260246000fdfe4f6e6c7920746865206d61726b65742063616e20617070726f766520746865207472616e73666572a26469706673582212205f32b32989a7e982c95b19aa2e64e0e7689ed92e4f8616c419c21bfd9733d7e064736f6c63430008180033",
  "linkReferences": {},
  "deployedLinkReferences": {}
}