{
  "_format": "hh-sol-artifact-1",
  "contractName": "MarketNFT",
  "sourceName": "contracts/MarketNFT.sol",
  "abi": [
    {
      "inputs": [],
      "stateMutability": "nonpayable",
      "type": "constructor"
    },
    {
      "inputs": [
        {
          "internalType": "address",
          "name": "owner",
          "type": "address"
        }
      ],
      "name": "OwnableInvalidOwner",
      "type": "error"
    },
    {
      "inputs": [
        {
          "internalType": "address",
          "name": "account",
          "type": "address"
        }
      ],
      "name": "OwnableUnauthorizedAccount",
      "type": "error"
    },
    {
      "anonymous": false,
      "inputs": [
        {
          "indexed": false,
          "internalType": "uint256",
          "name": "tokenId",
          "type": "uint256"
        },
        {
          "indexed": false,
          "internalType": "address",
          "name": "buyer",
          "type": "address"
        }
      ],
      "name": "Bought",
      "type": "event"
    },
    {
      "anonymous": false,
      "inputs": [
        {
          "indexed": false,
          "internalType": "uint256",
          "name": "tokenId",
          "type": "uint256"
        }
      ],
      "name": "Cancelled",
      "type": "event"
    },
    {
      "anonymous": false,
      "inputs": [
        {
          "indexed": false,
          "internalType": "uint256",
          "name": "tokenId",
          "type": "uint256"
        },
        {
          "indexed": false,
          "internalType": "uint256",
          "name": "price",
          "type": "uint256"
        }
      ],
      "name": "Listed",
      "type": "event"
    },
    {
      "anonymous": false,
      "inputs": [
        {
          "indexed": false,
          "internalType": "uint256",
          "name": "tokenId",
          "type": "uint256"
        },
        {
          "indexed": false,
          "internalType": "address",
          "name": "owner",
          "type": "address"
        },
        {
          "indexed": false,
          "internalType": "string",
          "name": "url",
          "type": "string"
        }
      ],
      "name": "Minted",
      "type": "event"
    },
    {
      "anonymous": false,
      "inputs": [
        {
          "indexed": true,
          "internalType": "address",
          "name": "previousOwner",
          "type": "address"
        },
        {
          "indexed": true,
          "internalType": "address",
          "name": "newOwner",
          "type": "address"
        }
      ],
      "name": "OwnershipTransferred",
      "type": "event"
    },
    {
      "inputs": [
        {
          "internalType": "uint256",
          "name": "tokenId",
          "type": "uint256"
        }
      ],
      "name": "buyNFT",
      "outputs": [],
      "stateMutability": "payable",
      "type": "function"
    },
    {
      "inputs": [
        {
          "internalType": "uint256",
          "name": "tokenId",
          "type": "uint256"
        }
      ],
      "name": "cancelListing",
      "outputs": [],
      "stateMutability": "nonpayable",
      "type": "function"
    },
    {
      "inputs": [],
      "name": "getAllNft",
      "outputs": [
        {
          "internalType": "uint256[]",
          "name": "",
          "type": "uint256[]"
        },
        {
          "internalType": "address[]",
          "name": "",
          "type": "address[]"
        },
        {
          "internalType": "string[]",
          "name": "",
          "type": "string[]"
        }
      ],
      "stateMutability": "view",
      "type": "function"
    },
    {
      "inputs": [
        {
          "internalType": "uint256",
          "name": "tokenId",
          "type": "uint256"
        },
        {
          "internalType": "uint256",
          "name": "price",
          "type": "uint256"
        }
      ],
      "name": "listNFT",
      "outputs": [],
      "stateMutability": "nonpayable",
      "type": "function"
    },
    {
      "inputs": [
        {
          "internalType": "address",
          "name": "to",
          "type": "address"
        },
        {
          "internalType": "string",
          "name": "tokenURI",
          "type": "string"
        }
      ],
      "name": "mint",
      "outputs": [
        {
          "internalType": "uint256",
          "name": "",
          "type": "uint256"
        }
      ],
      "stateMutability": "nonpayable",
      "type": "function"
    },
    {
      "inputs": [
        {
          "internalType": "string",
          "name": "tokenURI",
          "type": "string"
        },
        {
          "internalType": "uint256",
          "name": "price",
          "type": "uint256"
        }
      ],
      "name": "mintAndList",
      "outputs": [],
      "stateMutability": "nonpayable",
      "type": "function"
    },
    {
      "inputs": [],
      "name": "owner",
      "outputs": [
        {
          "internalType": "address",
          "name": "",
          "type": "address"
        }
      ],
      "stateMutability": "view",
      "type": "function"
    },
    {
      "inputs": [],
      "name": "renounceOwnership",
      "outputs": [],
      "stateMutability": "nonpayable",
      "type": "function"
    },
    {
      "inputs": [
        {
          "internalType": "address",
          "name": "newOwner",
          "type": "address"
        }
      ],
      "name": "transferOwnership",
      "outputs": [],
      "stateMutability": "nonpayable",
      "type": "function"
    },
    {
      "inputs": [
        {
          "internalType": "uint8",
          "name": "feePercentage",
          "type": "uint8"
        }
      ],
      "name": "updateFeePercentage",
      "outputs": [],
      "stateMutability": "nonpayable",
      "type": "function"
    },
    {
      "inputs": [],
      "name": "withdrawFunds",
      "outputs": [],
      "stateMutability": "nonpayable",
      "type": "function"
    }
  ],
  "bytecode": "0x60a06040526005600360006101000a81548160ff021916908360ff1602179055503480156200002d57600080fd5b5033600073ffffffffffffffffffffffffffffffffffffffff168173ffffffffffffffffffffffffffffffffffffffff1603620000a45760006040517f1e4fbdf70000000000000000000000000000000000000000000000000000000081526004016200009b91906200023f565b60405180910390fd5b620000b5816200012860201b60201c565b5030604051620000c590620001ec565b620000d191906200023f565b604051809103906000f080158015620000ee573d6000803e3d6000fd5b5073ffffffffffffffffffffffffffffffffffffffff1660808173ffffffffffffffffffffffffffffffffffffffff16815250506200025c565b60008060009054906101000a900473ffffffffffffffffffffffffffffffffffffffff169050816000806101000a81548173ffffffffffffffffffffffffffffffffffffffff021916908373ffffffffffffffffffffffffffffffffffffffff1602179055508173ffffffffffffffffffffffffffffffffffffffff168173ffffffffffffffffffffffffffffffffffffffff167f8be0079c531659141344cd1fd0a4f28419497f9722a3daafe3b4186f6b6457e060405160405180910390a35050565b612a4b806200286583390190565b600073ffffffffffffffffffffffffffffffffffffffff82169050919050565b60006200022782620001fa565b9050919050565b62000239816200021a565b82525050565b60006020820190506200025660008301846200022e565b92915050565b6080516125ca6200029b6000396000818161068701528181610b5b0152818161107a015281816112110152818161129c015261138701526125ca6000f3fe60806040526004361061009c5760003560e01c8063715018a611610064578063715018a6146101535780638da5cb5b1461016a57806394383f1414610195578063d0def521146101be578063d3d1b2e1146101fb578063f2fde38b146102245761009c565b8063085e3d8c146100a157806324600fc3146100ca578063305a67a8146100e157806351ed82881461010a57806363ba31cf14610126575b600080fd5b3480156100ad57600080fd5b506100c860048036038101906100c391906117fd565b61024d565b005b3480156100d657600080fd5b506100df6102d6565b005b3480156100ed57600080fd5b5061010860048036038101906101039190611860565b610446565b005b610124600480360381019061011f9190611860565b61076b565b005b34801561013257600080fd5b5061013b610c99565b60405161014a93929190611b8d565b60405180910390f35b34801561015f57600080fd5b50610168610fbd565b005b34801561017657600080fd5b5061017f610fd1565b60405161018c9190611be8565b60405180910390f35b3480156101a157600080fd5b506101bc60048036038101906101b79190611c03565b610ffa565b005b3480156101ca57600080fd5b506101e560048036038101906101e09190611da4565b611382565b6040516101f29190611e0f565b60405180910390f35b34801561020757600080fd5b50610222600480360381019061021d9190611e2a565b611531565b005b34801561023057600080fd5b5061024b60048036038101906102469190611e86565b61154e565b005b6102556115d4565b60648160ff16111560405180606001604052806030815260200161254360309139906102b7576040517f08c379a00000000000000000000000000000000000000000000000000000000081526004016102ae9190611efd565b60405180910390fd5b5080600360006101000a81548160ff021916908360ff16021790555050565b6102de6115d4565b6000479050600081116040518060400160405280601e81526020017f42616c616e6365206d7573742062652067726561746572207468616e203000008152509061035e576040517f08c379a00000000000000000000000000000000000000000000000000000000081526004016103559190611efd565b60405180910390fd5b5060003373ffffffffffffffffffffffffffffffffffffffff168260405161038590611f50565b60006040518083038185875af1925050503d80600081146103c2576040519150601f19603f3d011682016040523d82523d6000602084013e6103c7565b606091505b5050905080610442576040518060400160405280600f81526020017f5472616e73666572206661696c656400000000000000000000000000000000008152506040517f08c379a00000000000000000000000000000000000000000000000000000000081526004016104399190611efd565b60405180910390fd5b5050565b600060016000838152602001908152602001600020604051806060016040529081600082015481526020016001820160009054906101000a900473ffffffffffffffffffffffffffffffffffffffff1673ffffffffffffffffffffffffffffffffffffffff1673ffffffffffffffffffffffffffffffffffffffff1681526020016002820180546104d690611f94565b80601f016020809104026020016040519081016040528092919081815260200182805461050290611f94565b801561054f5780601f106105245761010080835404028352916020019161054f565b820191906000526020600020905b81548152906001019060200180831161053257829003601f168201915b505050505081525050905060008160000151116040518060400160405280601381526020017f4e4654206973206e6f7420666f722073616c6500000000000000000000000000815250906105d9576040517f08c379a00000000000000000000000000000000000000000000000000000000081526004016105d09190611efd565b60405180910390fd5b503373ffffffffffffffffffffffffffffffffffffffff16816020015173ffffffffffffffffffffffffffffffffffffffff16146040518060400160405280602081526020017f596f75277265206e6f74207468652073656c6c6572206f6620746865204e465481525090610684576040517f08c379a000000000000000000000000000000000000000000000000000000000815260040161067b9190611efd565b60405180910390fd5b507f000000000000000000000000000000000000000000000000000000000000000073ffffffffffffffffffffffffffffffffffffffff166323b872dd3033856040518463ffffffff1660e01b81526004016106e293929190611fc5565b600060405180830381600087803b1580156106fc57600080fd5b505af1158015610710573d6000803e3d6000fd5b50505050600060016000848152602001908152602001600020600001819055507fc41d93b8bfbf9fd7cf5bfe271fd649ab6a6fec0ea101c23b82a2a28eca2533a98260405161075f9190611e0f565b60405180910390a15050565b600060016000838152602001908152602001600020604051806060016040529081600082015481526020016001820160009054906101000a900473ffffffffffffffffffffffffffffffffffffffff1673ffffffffffffffffffffffffffffffffffffffff1673ffffffffffffffffffffffffffffffffffffffff1681526020016002820180546107fb90611f94565b80601f016020809104026020016040519081016040528092919081815260200182805461082790611f94565b80156108745780601f1061084957610100808354040283529160200191610874565b820191906000526020600020905b81548152906001019060200180831161085757829003601f168201915b505050505081525050905060008160000151116040518060400160405280601381526020017f4e4654206973206e6f7420666f722073616c6500000000000000000000000000815250906108fe576040517f08c379a00000000000000000000000000000000000000000000000000000000081526004016108f59190611efd565b60405180910390fd5b50806000015134146040518060600160405280602a81526020016124f8602a913990610960576040517f08c379a00000000000000000000000000000000000000000000000000000000081526004016109579190611efd565b60405180910390fd5b50806020015173ffffffffffffffffffffffffffffffffffffffff163373ffffffffffffffffffffffffffffffffffffffff1614156040518060400160405280601f81526020017f546865206f776e65722063616e27742062757920686973206f776e204e46540081525090610a0c576040517f08c379a0000000000000000000000000000000000000000000000000000000008152600401610a039190611efd565b60405180910390fd5b50600080610a3c8360000151600360009054906101000a900460ff166064610a34919061202b565b60ff1661165b565b9150915081610a4e57610a4d612060565b5b610a5c81606460ff166116ae565b809250819350505081610a7257610a71612060565b5b6000836020015173ffffffffffffffffffffffffffffffffffffffff1682604051610a9c90611f50565b60006040518083038185875af1925050503d8060008114610ad9576040519150601f19603f3d011682016040523d82523d6000602084013e610ade565b606091505b5050905080610b59576040518060400160405280600f81526020017f5472616e73666572206661696c656400000000000000000000000000000000008152506040517f08c379a0000000000000000000000000000000000000000000000000000000008152600401610b509190611efd565b60405180910390fd5b7f000000000000000000000000000000000000000000000000000000000000000073ffffffffffffffffffffffffffffffffffffffff166323b872dd3033886040518463ffffffff1660e01b8152600401610bb693929190611fc5565b600060405180830381600087803b158015610bd057600080fd5b505af1158015610be4573d6000803e3d6000fd5b5050505060006001600087815260200190815260200160002060000181905550336001600087815260200190815260200160002060010160006101000a81548173ffffffffffffffffffffffffffffffffffffffff021916908373ffffffffffffffffffffffffffffffffffffffff1602179055507fc54c8cc1c7525b424ec71b685c00d9355581a280488018c22005332ceb2fd4068533604051610c8a92919061208f565b60405180910390a15050505050565b60608060603373ffffffffffffffffffffffffffffffffffffffff163273ffffffffffffffffffffffffffffffffffffffff16146040518060600160405280602181526020016125226021913990610d27576040517f08c379a0000000000000000000000000000000000000000000000000000000008152600401610d1e9190611efd565b60405180910390fd5b50600060025467ffffffffffffffff811115610d4657610d45611c79565b5b604051908082528060200260200182016040528015610d745781602001602082028036833780820191505090505b509050600060025467ffffffffffffffff811115610d9557610d94611c79565b5b604051908082528060200260200182016040528015610dc35781602001602082028036833780820191505090505b509050600060025467ffffffffffffffff811115610de457610de3611c79565b5b604051908082528060200260200182016040528015610e1757816020015b6060815260200190600190039081610e025790505b50905060005b600254811015610fab576001600082815260200190815260200160002060000154848281518110610e5157610e506120b8565b5b6020026020010181815250506001600082815260200190815260200160002060010160009054906101000a900473ffffffffffffffffffffffffffffffffffffffff16838281518110610ea757610ea66120b8565b5b602002602001019073ffffffffffffffffffffffffffffffffffffffff16908173ffffffffffffffffffffffffffffffffffffffff1681525050600160008281526020019081526020016000206002018054610f0290611f94565b80601f0160208091040260200160405190810160405280929190818152602001828054610f2e90611f94565b8015610f7b5780601f10610f5057610100808354040283529160200191610f7b565b820191906000526020600020905b815481529060010190602001808311610f5e57829003601f168201915b5050505050828281518110610f9357610f926120b8565b5b60200260200101819052508080600101915050610e1d565b50828282955095509550505050909192565b610fc56115d4565b610fcf60006116e4565b565b60008060009054906101000a900473ffffffffffffffffffffffffffffffffffffffff16905090565b600081116040518060400160405280601c81526020017f5072696365206d7573742062652067726561746572207468616e20300000000081525090611075576040517f08c379a000000000000000000000000000000000000000000000000000000000815260040161106c9190611efd565b60405180910390fd5b5060007f000000000000000000000000000000000000000000000000000000000000000073ffffffffffffffffffffffffffffffffffffffff16636352211e846040518263ffffffff1660e01b81526004016110d19190611e0f565b602060405180830381865afa92505050801561110b57506040513d601f19601f8201168201806040525081019061110891906120fc565b60015b61116457604051806060016040528060228152602001612573602291396040517f08c379a000000000000000000000000000000000000000000000000000000000815260040161115b9190611efd565b60405180910390fd5b809150503373ffffffffffffffffffffffffffffffffffffffff168173ffffffffffffffffffffffffffffffffffffffff16146040518060400160405280601f81526020017f596f75277265206e6f7420746865206f776e6572206f6620746865204e4654008152509061120e576040517f08c379a00000000000000000000000000000000000000000000000000000000081526004016112059190611efd565b60405180910390fd5b507f000000000000000000000000000000000000000000000000000000000000000073ffffffffffffffffffffffffffffffffffffffff1663f658518a846040518263ffffffff1660e01b81526004016112689190611e0f565b600060405180830381600087803b15801561128257600080fd5b505af1158015611296573d6000803e3d6000fd5b505050507f000000000000000000000000000000000000000000000000000000000000000073ffffffffffffffffffffffffffffffffffffffff166323b872dd3330866040518463ffffffff1660e01b81526004016112f793929190611fc5565b600060405180830381600087803b15801561131157600080fd5b505af1158015611325573d6000803e3d6000fd5b505050508160016000858152602001908152602001600020600001819055507f1ea45e30b31292f9d7c5d37d275b2feca555f13f47dce0fdea2f47e8852ecd788383604051611375929190612129565b60405180910390a1505050565b6000807f000000000000000000000000000000000000000000000000000000000000000073ffffffffffffffffffffffffffffffffffffffff1663d0def52185856040518363ffffffff1660e01b81526004016113e0929190612152565b6020604051808303816000875af11580156113ff573d6000803e3d6000fd5b505050506040513d601f19601f820116820180604052508101906114239190612197565b90506040518060600160405280600081526020018573ffffffffffffffffffffffffffffffffffffffff16815260200184815250600160008381526020019081526020016000206000820151816000015560208201518160010160006101000a81548173ffffffffffffffffffffffffffffffffffffffff021916908373ffffffffffffffffffffffffffffffffffffffff16021790555060408201518160020190816114d09190612370565b50905050600260008154809291906114e790612442565b91905055507f3b8a974a6971dbe70c8718ec80406b2790d2aa5477b6a5bed3d94fa19e06d60d81858560405161151f9392919061248a565b60405180910390a18091505092915050565b600061153d3384611382565b90506115498183610ffa565b505050565b6115566115d4565b600073ffffffffffffffffffffffffffffffffffffffff168173ffffffffffffffffffffffffffffffffffffffff16036115c85760006040517f1e4fbdf70000000000000000000000000000000000000000000000000000000081526004016115bf9190611be8565b60405180910390fd5b6115d1816116e4565b50565b6115dc6117a8565b73ffffffffffffffffffffffffffffffffffffffff166115fa610fd1565b73ffffffffffffffffffffffffffffffffffffffff16146116595761161d6117a8565b6040517f118cdaa70000000000000000000000000000000000000000000000000000000081526004016116509190611be8565b60405180910390fd5b565b600080600084036116735760016000915091506116a7565b600083850290508385828161168b5761168a6124c8565b5b041461169e5760008092509250506116a7565b60018192509250505b9250929050565b600080600083036116c557600080915091506116dd565b60018385816116d7576116d66124c8565b5b04915091505b9250929050565b60008060009054906101000a900473ffffffffffffffffffffffffffffffffffffffff169050816000806101000a81548173ffffffffffffffffffffffffffffffffffffffff021916908373ffffffffffffffffffffffffffffffffffffffff1602179055508173ffffffffffffffffffffffffffffffffffffffff168173ffffffffffffffffffffffffffffffffffffffff167f8be0079c531659141344cd1fd0a4f28419497f9722a3daafe3b4186f6b6457e060405160405180910390a35050565b600033905090565b6000604051905090565b600080fd5b600080fd5b600060ff82169050919050565b6117da816117c4565b81146117e557600080fd5b50565b6000813590506117f7816117d1565b92915050565b600060208284031215611813576118126117ba565b5b6000611821848285016117e8565b91505092915050565b6000819050919050565b61183d8161182a565b811461184857600080fd5b50565b60008135905061185a81611834565b92915050565b600060208284031215611876576118756117ba565b5b60006118848482850161184b565b91505092915050565b600081519050919050565b600082825260208201905092915050565b6000819050602082019050919050565b6118c28161182a565b82525050565b60006118d483836118b9565b60208301905092915050565b6000602082019050919050565b60006118f88261188d565b6119028185611898565b935061190d836118a9565b8060005b8381101561193e57815161192588826118c8565b9750611930836118e0565b925050600181019050611911565b5085935050505092915050565b600081519050919050565b600082825260208201905092915050565b6000819050602082019050919050565b600073ffffffffffffffffffffffffffffffffffffffff82169050919050565b60006119a282611977565b9050919050565b6119b281611997565b82525050565b60006119c483836119a9565b60208301905092915050565b6000602082019050919050565b60006119e88261194b565b6119f28185611956565b93506119fd83611967565b8060005b83811015611a2e578151611a1588826119b8565b9750611a20836119d0565b925050600181019050611a01565b5085935050505092915050565b600081519050919050565b600082825260208201905092915050565b6000819050602082019050919050565b600081519050919050565b600082825260208201905092915050565b60005b83811015611aa1578082015181840152602081019050611a86565b60008484015250505050565b6000601f19601f8301169050919050565b6000611ac982611a67565b611ad38185611a72565b9350611ae3818560208601611a83565b611aec81611aad565b840191505092915050565b6000611b038383611abe565b905092915050565b6000602082019050919050565b6000611b2382611a3b565b611b2d8185611a46565b935083602082028501611b3f85611a57565b8060005b85811015611b7b5784840389528151611b5c8582611af7565b9450611b6783611b0b565b925060208a01995050600181019050611b43565b50829750879550505050505092915050565b60006060820190508181036000830152611ba781866118ed565b90508181036020830152611bbb81856119dd565b90508181036040830152611bcf8184611b18565b9050949350505050565b611be281611997565b82525050565b6000602082019050611bfd6000830184611bd9565b92915050565b60008060408385031215611c1a57611c196117ba565b5b6000611c288582860161184b565b9250506020611c398582860161184b565b9150509250929050565b611c4c81611997565b8114611c5757600080fd5b50565b600081359050611c6981611c43565b92915050565b600080fd5b600080fd5b7f4e487b7100000000000000000000000000000000000000000000000000000000600052604160045260246000fd5b611cb182611aad565b810181811067ffffffffffffffff82111715611cd057611ccf611c79565b5b80604052505050565b6000611ce36117b0565b9050611cef8282611ca8565b919050565b600067ffffffffffffffff821115611d0f57611d0e611c79565b5b611d1882611aad565b9050602081019050919050565b82818337600083830152505050565b6000611d47611d4284611cf4565b611cd9565b905082815260208101848484011115611d6357611d62611c74565b5b611d6e848285611d25565b509392505050565b600082601f830112611d8b57611d8a611c6f565b5b8135611d9b848260208601611d34565b91505092915050565b60008060408385031215611dbb57611dba6117ba565b5b6000611dc985828601611c5a565b925050602083013567ffffffffffffffff811115611dea57611de96117bf565b5b611df685828601611d76565b9150509250929050565b611e098161182a565b82525050565b6000602082019050611e246000830184611e00565b92915050565b60008060408385031215611e4157611e406117ba565b5b600083013567ffffffffffffffff811115611e5f57611e5e6117bf565b5b611e6b85828601611d76565b9250506020611e7c8582860161184b565b9150509250929050565b600060208284031215611e9c57611e9b6117ba565b5b6000611eaa84828501611c5a565b91505092915050565b600082825260208201905092915050565b6000611ecf82611a67565b611ed98185611eb3565b9350611ee9818560208601611a83565b611ef281611aad565b840191505092915050565b60006020820190508181036000830152611f178184611ec4565b905092915050565b600081905092915050565b50565b6000611f3a600083611f1f565b9150611f4582611f2a565b600082019050919050565b6000611f5b82611f2d565b9150819050919050565b7f4e487b7100000000000000000000000000000000000000000000000000000000600052602260045260246000fd5b60006002820490506001821680611fac57607f821691505b602082108103611fbf57611fbe611f65565b5b50919050565b6000606082019050611fda6000830186611bd9565b611fe76020830185611bd9565b611ff46040830184611e00565b949350505050565b7f4e487b7100000000000000000000000000000000000000000000000000000000600052601160045260246000fd5b6000612036826117c4565b9150612041836117c4565b9250828203905060ff81111561205a57612059611ffc565b5b92915050565b7f4e487b7100000000000000000000000000000000000000000000000000000000600052600160045260246000fd5b60006040820190506120a46000830185611e00565b6120b16020830184611bd9565b9392505050565b7f4e487b7100000000000000000000000000000000000000000000000000000000600052603260045260246000fd5b6000815190506120f681611c43565b92915050565b600060208284031215612112576121116117ba565b5b6000612120848285016120e7565b91505092915050565b600060408201905061213e6000830185611e00565b61214b6020830184611e00565b9392505050565b60006040820190506121676000830185611bd9565b81810360208301526121798184611ec4565b90509392505050565b60008151905061219181611834565b92915050565b6000602082840312156121ad576121ac6117ba565b5b60006121bb84828501612182565b91505092915050565b60008190508160005260206000209050919050565b60006020601f8301049050919050565b600082821b905092915050565b6000600883026122267fffffffffffffffffffffffffffffffffffffffffffffffffffffffffffffffff826121e9565b61223086836121e9565b95508019841693508086168417925050509392505050565b6000819050919050565b600061226d6122686122638461182a565b612248565b61182a565b9050919050565b6000819050919050565b61228783612252565b61229b61229382612274565b8484546121f6565b825550505050565b600090565b6122b06122a3565b6122bb81848461227e565b505050565b5b818110156122df576122d46000826122a8565b6001810190506122c1565b5050565b601f821115612324576122f5816121c4565b6122fe846121d9565b8101602085101561230d578190505b612321612319856121d9565b8301826122c0565b50505b505050565b600082821c905092915050565b600061234760001984600802612329565b1980831691505092915050565b60006123608383612336565b9150826002028217905092915050565b61237982611a67565b67ffffffffffffffff81111561239257612391611c79565b5b61239c8254611f94565b6123a78282856122e3565b600060209050601f8311600181146123da57600084156123c8578287015190505b6123d28582612354565b86555061243a565b601f1984166123e8866121c4565b60005b82811015612410578489015182556001820191506020850194506020810190506123eb565b8683101561242d5784890151612429601f891682612336565b8355505b6001600288020188555050505b505050505050565b600061244d8261182a565b91507fffffffffffffffffffffffffffffffffffffffffffffffffffffffffffffffff820361247f5761247e611ffc565b5b600182019050919050565b600060608201905061249f6000830186611e00565b6124ac6020830185611bd9565b81810360408301526124be8184611ec4565b9050949350505050565b7f4e487b7100000000000000000000000000000000000000000000000000000000600052601260045260246000fdfe5468652070726963652070616964206973206e6f74207468652076616c7565206f6620746865204e4654436f6e74726163742063616e27742063616c6c20746869732066756e6374696f6e4665652070657263656e74616765206d757374206265206c657373207468616e206f7220657175616c20746f203130304e4654206973206e6f742070726573656e7420696e2074686520636f6e7472616374a26469706673582212206ac9011e633893e8de5902945c6818756b4b1b55116a175575217fa296b8cd0e64736f6c6343000818003360a06040523480156200001157600080fd5b5060405162002a4b38038062002a4b83398181016040528101906200003791906200016e565b6040518060400160405280600881526020017f4e4654546f6b656e0000000000000000000000000000000000000000000000008152506040518060400160405280600381526020017f4e465400000000000000000000000000000000000000000000000000000000008152508160009081620000b491906200041a565b508060019081620000c691906200041a565b5050508073ffffffffffffffffffffffffffffffffffffffff1660808173ffffffffffffffffffffffffffffffffffffffff16815250505062000501565b600080fd5b600073ffffffffffffffffffffffffffffffffffffffff82169050919050565b6000620001368262000109565b9050919050565b620001488162000129565b81146200015457600080fd5b50565b60008151905062000168816200013d565b92915050565b60006020828403121562000187576200018662000104565b5b6000620001978482850162000157565b91505092915050565b600081519050919050565b7f4e487b7100000000000000000000000000000000000000000000000000000000600052604160045260246000fd5b7f4e487b7100000000000000000000000000000000000000000000000000000000600052602260045260246000fd5b600060028204905060018216806200022257607f821691505b602082108103620002385762000237620001da565b5b50919050565b60008190508160005260206000209050919050565b60006020601f8301049050919050565b600082821b905092915050565b600060088302620002a27fffffffffffffffffffffffffffffffffffffffffffffffffffffffffffffffff8262000263565b620002ae868362000263565b95508019841693508086168417925050509392505050565b6000819050919050565b6000819050919050565b6000620002fb620002f5620002ef84620002c6565b620002d0565b620002c6565b9050919050565b6000819050919050565b6200031783620002da565b6200032f620003268262000302565b84845462000270565b825550505050565b600090565b6200034662000337565b620003538184846200030c565b505050565b5b818110156200037b576200036f6000826200033c565b60018101905062000359565b5050565b601f821115620003ca5762000394816200023e565b6200039f8462000253565b81016020851015620003af578190505b620003c7620003be8562000253565b83018262000358565b50505b505050565b600082821c905092915050565b6000620003ef60001984600802620003cf565b1980831691505092915050565b60006200040a8383620003dc565b9150826002028217905092915050565b6200042582620001a0565b67ffffffffffffffff811115620004415762000440620001ab565b5b6200044d825462000209565b6200045a8282856200037f565b600060209050601f8311600181146200049257600084156200047d578287015190505b620004898582620003fc565b865550620004f9565b601f198416620004a2866200023e565b60005b82811015620004cc57848901518255600182019150602085019450602081019050620004a5565b86831015620004ec5784890151620004e8601f891682620003dc565b8355505b6001600288020188555050505b505050505050565b60805161252762000524600039600081816108e9015261099601526125276000f3fe608060405234801561001057600080fd5b50600436106100f55760003560e01c806370a0823111610097578063c87b56dd11610066578063c87b56dd14610282578063d0def521146102b2578063e985e9c5146102e2578063f658518a14610312576100f5565b806370a08231146101fc57806395d89b411461022c578063a22cb4651461024a578063b88d4fde14610266576100f5565b8063095ea7b3116100d3578063095ea7b31461017857806323b872dd1461019457806342842e0e146101b05780636352211e146101cc576100f5565b806301ffc9a7146100fa57806306fdde031461012a578063081812fc14610148575b600080fd5b610114600480360381019061010f9190611957565b61032e565b604051610121919061199f565b60405180910390f35b61013261038f565b60405161013f9190611a4a565b60405180910390f35b610162600480360381019061015d9190611aa2565b610421565b60405161016f9190611b10565b60405180910390f35b610192600480360381019061018d9190611b57565b61043d565b005b6101ae60048036038101906101a99190611b97565b610453565b005b6101ca60048036038101906101c59190611b97565b610555565b005b6101e660048036038101906101e19190611aa2565b610575565b6040516101f39190611b10565b60405180910390f35b61021660048036038101906102119190611bea565b610587565b6040516102239190611c26565b60405180910390f35b610234610641565b6040516102419190611a4a565b60405180910390f35b610264600480360381019061025f9190611c6d565b6106d3565b005b610280600480360381019061027b9190611de2565b6106e9565b005b61029c60048036038101906102979190611aa2565b610706565b6040516102a99190611a4a565b60405180910390f35b6102cc60048036038101906102c79190611f06565b610819565b6040516102d99190611c26565b60405180910390f35b6102fc60048036038101906102f79190611f62565b610853565b604051610309919061199f565b60405180910390f35b61032c60048036038101906103279190611aa2565b6108e7565b005b6000634906490660e01b7bffffffffffffffffffffffffffffffffffffffffffffffffffffffff1916827bffffffffffffffffffffffffffffffffffffffffffffffffffffffff191614806103885750610387826109c9565b5b9050919050565b60606000805461039e90611fd1565b80601f01602080910402602001604051908101604052809291908181526020018280546103ca90611fd1565b80156104175780601f106103ec57610100808354040283529160200191610417565b820191906000526020600020905b8154815290600101906020018083116103fa57829003601f168201915b5050505050905090565b600061042c82610aab565b5061043682610b33565b9050919050565b61044f828261044a610b70565b610b78565b5050565b600073ffffffffffffffffffffffffffffffffffffffff168273ffffffffffffffffffffffffffffffffffffffff16036104c55760006040517f64a0ae920000000000000000000000000000000000000000000000000000000081526004016104bc9190611b10565b60405180910390fd5b60006104d983836104d4610b70565b610b8a565b90508373ffffffffffffffffffffffffffffffffffffffff168173ffffffffffffffffffffffffffffffffffffffff161461054f578382826040517f64283d7b00000000000000000000000000000000000000000000000000000000815260040161054693929190612002565b60405180910390fd5b50505050565b610570838383604051806020016040528060008152506106e9565b505050565b600061058082610aab565b9050919050565b60008073ffffffffffffffffffffffffffffffffffffffff168273ffffffffffffffffffffffffffffffffffffffff16036105fa5760006040517f89c62b640000000000000000000000000000000000000000000000000000000081526004016105f19190611b10565b60405180910390fd5b600360008373ffffffffffffffffffffffffffffffffffffffff1673ffffffffffffffffffffffffffffffffffffffff168152602001908152602001600020549050919050565b60606001805461065090611fd1565b80601f016020809104026020016040519081016040528092919081815260200182805461067c90611fd1565b80156106c95780601f1061069e576101008083540402835291602001916106c9565b820191906000526020600020905b8154815290600101906020018083116106ac57829003601f168201915b5050505050905090565b6106e56106de610b70565b8383610da4565b5050565b6106f4848484610453565b61070084848484610f13565b50505050565b606061071182610aab565b50600060066000848152602001908152602001600020805461073290611fd1565b80601f016020809104026020016040519081016040528092919081815260200182805461075e90611fd1565b80156107ab5780601f10610780576101008083540402835291602001916107ab565b820191906000526020600020905b81548152906001019060200180831161078e57829003601f168201915b5050505050905060006107bc6110ca565b905060008151036107d1578192505050610814565b6000825111156108065780826040516020016107ee929190612075565b60405160208183030381529060405292505050610814565b61080f846110e1565b925050505b919050565b6000806007600081548092919061082f906120c8565b91905055905061083f848261114a565b6108498184611168565b8091505092915050565b6000600560008473ffffffffffffffffffffffffffffffffffffffff1673ffffffffffffffffffffffffffffffffffffffff16815260200190815260200160002060008373ffffffffffffffffffffffffffffffffffffffff1673ffffffffffffffffffffffffffffffffffffffff16815260200190815260200160002060009054906101000a900460ff16905092915050565b7f000000000000000000000000000000000000000000000000000000000000000073ffffffffffffffffffffffffffffffffffffffff163373ffffffffffffffffffffffffffffffffffffffff16146040518060600160405280602881526020016124ca6028913990610990576040517f08c379a00000000000000000000000000000000000000000000000000000000081526004016109879190611a4a565b60405180910390fd5b506109c67f0000000000000000000000000000000000000000000000000000000000000000826109bf84610575565b60016111c4565b50565b60007f80ac58cd000000000000000000000000000000000000000000000000000000007bffffffffffffffffffffffffffffffffffffffffffffffffffffffff1916827bffffffffffffffffffffffffffffffffffffffffffffffffffffffff19161480610a9457507f5b5e139f000000000000000000000000000000000000000000000000000000007bffffffffffffffffffffffffffffffffffffffffffffffffffffffff1916827bffffffffffffffffffffffffffffffffffffffffffffffffffffffff1916145b80610aa45750610aa382611389565b5b9050919050565b600080610ab7836113f3565b9050600073ffffffffffffffffffffffffffffffffffffffff168173ffffffffffffffffffffffffffffffffffffffff1603610b2a57826040517f7e273289000000000000000000000000000000000000000000000000000000008152600401610b219190611c26565b60405180910390fd5b80915050919050565b60006004600083815260200190815260200160002060009054906101000a900473ffffffffffffffffffffffffffffffffffffffff169050919050565b600033905090565b610b8583838360016111c4565b505050565b600080610b96846113f3565b9050600073ffffffffffffffffffffffffffffffffffffffff168373ffffffffffffffffffffffffffffffffffffffff1614610bd857610bd7818486611430565b5b600073ffffffffffffffffffffffffffffffffffffffff168173ffffffffffffffffffffffffffffffffffffffff1614610c6957610c1a6000856000806111c4565b6001600360008373ffffffffffffffffffffffffffffffffffffffff1673ffffffffffffffffffffffffffffffffffffffff168152602001908152602001600020600082825403925050819055505b600073ffffffffffffffffffffffffffffffffffffffff168573ffffffffffffffffffffffffffffffffffffffff1614610cec576001600360008773ffffffffffffffffffffffffffffffffffffffff1673ffffffffffffffffffffffffffffffffffffffff168152602001908152602001600020600082825401925050819055505b846002600086815260200190815260200160002060006101000a81548173ffffffffffffffffffffffffffffffffffffffff021916908373ffffffffffffffffffffffffffffffffffffffff160217905550838573ffffffffffffffffffffffffffffffffffffffff168273ffffffffffffffffffffffffffffffffffffffff167fddf252ad1be2c89b69c2b068fc378daa952ba7f163c4a11628f55a4df523b3ef60405160405180910390a4809150509392505050565b600073ffffffffffffffffffffffffffffffffffffffff168273ffffffffffffffffffffffffffffffffffffffff1603610e1557816040517f5b08ba18000000000000000000000000000000000000000000000000000000008152600401610e0c9190611b10565b60405180910390fd5b80600560008573ffffffffffffffffffffffffffffffffffffffff1673ffffffffffffffffffffffffffffffffffffffff16815260200190815260200160002060008473ffffffffffffffffffffffffffffffffffffffff1673ffffffffffffffffffffffffffffffffffffffff16815260200190815260200160002060006101000a81548160ff0219169083151502179055508173ffffffffffffffffffffffffffffffffffffffff168373ffffffffffffffffffffffffffffffffffffffff167f17307eab39ab6107e8899845ad3d59bd9653f200f220920489ca2b5937696c3183604051610f06919061199f565b60405180910390a3505050565b60008373ffffffffffffffffffffffffffffffffffffffff163b11156110c4578273ffffffffffffffffffffffffffffffffffffffff1663150b7a02610f57610b70565b8685856040518563ffffffff1660e01b8152600401610f799493929190612165565b6020604051808303816000875af1925050508015610fb557506040513d601f19601f82011682018060405250810190610fb291906121c6565b60015b611039573d8060008114610fe5576040519150601f19603f3d011682016040523d82523d6000602084013e610fea565b606091505b50600081510361103157836040517f64a0ae920000000000000000000000000000000000000000000000000000000081526004016110289190611b10565b60405180910390fd5b805181602001fd5b63150b7a0260e01b7bffffffffffffffffffffffffffffffffffffffffffffffffffffffff1916817bffffffffffffffffffffffffffffffffffffffffffffffffffffffff1916146110c257836040517f64a0ae920000000000000000000000000000000000000000000000000000000081526004016110b99190611b10565b60405180910390fd5b505b50505050565b606060405180602001604052806000815250905090565b60606110ec82610aab565b5060006110f76110ca565b905060008151116111175760405180602001604052806000815250611142565b80611121846114f4565b604051602001611132929190612075565b6040516020818303038152906040525b915050919050565b6111648282604051806020016040528060008152506115c2565b5050565b80600660008481526020019081526020016000209081611188919061239f565b507ff8e1a15aba9398e019f0b49df1a4fde98ee17ae345cb5f6b5e2c27f5033e8ce7826040516111b89190611c26565b60405180910390a15050565b80806111fd5750600073ffffffffffffffffffffffffffffffffffffffff168273ffffffffffffffffffffffffffffffffffffffff1614155b1561133157600061120d84610aab565b9050600073ffffffffffffffffffffffffffffffffffffffff168373ffffffffffffffffffffffffffffffffffffffff161415801561127857508273ffffffffffffffffffffffffffffffffffffffff168173ffffffffffffffffffffffffffffffffffffffff1614155b801561128b57506112898184610853565b155b156112cd57826040517fa9fbf51f0000000000000000000000000000000000000000000000000000000081526004016112c49190611b10565b60405180910390fd5b811561132f57838573ffffffffffffffffffffffffffffffffffffffff168273ffffffffffffffffffffffffffffffffffffffff167f8c5be1e5ebec7d5bd14f71427d1e84f3dd0314c0f7b2291e5b200ac8c7c3b92560405160405180910390a45b505b836004600085815260200190815260200160002060006101000a81548173ffffffffffffffffffffffffffffffffffffffff021916908373ffffffffffffffffffffffffffffffffffffffff16021790555050505050565b60007f01ffc9a7000000000000000000000000000000000000000000000000000000007bffffffffffffffffffffffffffffffffffffffffffffffffffffffff1916827bffffffffffffffffffffffffffffffffffffffffffffffffffffffff1916149050919050565b60006002600083815260200190815260200160002060009054906101000a900473ffffffffffffffffffffffffffffffffffffffff169050919050565b61143b8383836115de565b6114ef57600073ffffffffffffffffffffffffffffffffffffffff168373ffffffffffffffffffffffffffffffffffffffff16036114b057806040517f7e2732890000000000000000000000000000000000000000000000000000000081526004016114a79190611c26565b60405180910390fd5b81816040517f177e802f0000000000000000000000000000000000000000000000000000000081526004016114e6929190612471565b60405180910390fd5b505050565b6060600060016115038461169f565b01905060008167ffffffffffffffff81111561152257611521611cb7565b5b6040519080825280601f01601f1916602001820160405280156115545781602001600182028036833780820191505090505b509050600082602001820190505b6001156115b7578080600190039150507f3031323334353637383961626364656600000000000000000000000000000000600a86061a8153600a85816115ab576115aa61249a565b5b04945060008503611562575b819350505050919050565b6115cc83836117f2565b6115d96000848484610f13565b505050565b60008073ffffffffffffffffffffffffffffffffffffffff168373ffffffffffffffffffffffffffffffffffffffff161415801561169657508273ffffffffffffffffffffffffffffffffffffffff168473ffffffffffffffffffffffffffffffffffffffff16148061165757506116568484610853565b5b8061169557508273ffffffffffffffffffffffffffffffffffffffff1661167d83610b33565b73ffffffffffffffffffffffffffffffffffffffff16145b5b90509392505050565b600080600090507a184f03e93ff9f4daa797ed6e38ed64bf6a1f01000000000000000083106116fd577a184f03e93ff9f4daa797ed6e38ed64bf6a1f01000000000000000083816116f3576116f261249a565b5b0492506040810190505b6d04ee2d6d415b85acef8100000000831061173a576d04ee2d6d415b85acef810000000083816117305761172f61249a565b5b0492506020810190505b662386f26fc10000831061176957662386f26fc10000838161175f5761175e61249a565b5b0492506010810190505b6305f5e1008310611792576305f5e10083816117885761178761249a565b5b0492506008810190505b61271083106117b75761271083816117ad576117ac61249a565b5b0492506004810190505b606483106117da57606483816117d0576117cf61249a565b5b0492506002810190505b600a83106117e9576001810190505b80915050919050565b600073ffffffffffffffffffffffffffffffffffffffff168273ffffffffffffffffffffffffffffffffffffffff16036118645760006040517f64a0ae9200000000000000000000000000000000000000000000000000000000815260040161185b9190611b10565b60405180910390fd5b600061187283836000610b8a565b9050600073ffffffffffffffffffffffffffffffffffffffff168173ffffffffffffffffffffffffffffffffffffffff16146118e65760006040517f73c6ac6e0000000000000000000000000000000000000000000000000000000081526004016118dd9190611b10565b60405180910390fd5b505050565b6000604051905090565b600080fd5b600080fd5b60007fffffffff0000000000000000000000000000000000000000000000000000000082169050919050565b611934816118ff565b811461193f57600080fd5b50565b6000813590506119518161192b565b92915050565b60006020828403121561196d5761196c6118f5565b5b600061197b84828501611942565b91505092915050565b60008115159050919050565b61199981611984565b82525050565b60006020820190506119b46000830184611990565b92915050565b600081519050919050565b600082825260208201905092915050565b60005b838110156119f45780820151818401526020810190506119d9565b60008484015250505050565b6000601f19601f8301169050919050565b6000611a1c826119ba565b611a2681856119c5565b9350611a368185602086016119d6565b611a3f81611a00565b840191505092915050565b60006020820190508181036000830152611a648184611a11565b905092915050565b6000819050919050565b611a7f81611a6c565b8114611a8a57600080fd5b50565b600081359050611a9c81611a76565b92915050565b600060208284031215611ab857611ab76118f5565b5b6000611ac684828501611a8d565b91505092915050565b600073ffffffffffffffffffffffffffffffffffffffff82169050919050565b6000611afa82611acf565b9050919050565b611b0a81611aef565b82525050565b6000602082019050611b256000830184611b01565b92915050565b611b3481611aef565b8114611b3f57600080fd5b50565b600081359050611b5181611b2b565b92915050565b60008060408385031215611b6e57611b6d6118f5565b5b6000611b7c85828601611b42565b9250506020611b8d85828601611a8d565b9150509250929050565b600080600060608486031215611bb057611baf6118f5565b5b6000611bbe86828701611b42565b9350506020611bcf86828701611b42565b9250506040611be086828701611a8d565b9150509250925092565b600060208284031215611c0057611bff6118f5565b5b6000611c0e84828501611b42565b91505092915050565b611c2081611a6c565b82525050565b6000602082019050611c3b6000830184611c17565b92915050565b611c4a81611984565b8114611c5557600080fd5b50565b600081359050611c6781611c41565b92915050565b60008060408385031215611c8457611c836118f5565b5b6000611c9285828601611b42565b9250506020611ca385828601611c58565b9150509250929050565b600080fd5b600080fd5b7f4e487b7100000000000000000000000000000000000000000000000000000000600052604160045260246000fd5b611cef82611a00565b810181811067ffffffffffffffff82111715611d0e57611d0d611cb7565b5b80604052505050565b6000611d216118eb565b9050611d2d8282611ce6565b919050565b600067ffffffffffffffff821115611d4d57611d4c611cb7565b5b611d5682611a00565b9050602081019050919050565b82818337600083830152505050565b6000611d85611d8084611d32565b611d17565b905082815260208101848484011115611da157611da0611cb2565b5b611dac848285611d63565b509392505050565b600082601f830112611dc957611dc8611cad565b5b8135611dd9848260208601611d72565b91505092915050565b60008060008060808587031215611dfc57611dfb6118f5565b5b6000611e0a87828801611b42565b9450506020611e1b87828801611b42565b9350506040611e2c87828801611a8d565b925050606085013567ffffffffffffffff811115611e4d57611e4c6118fa565b5b611e5987828801611db4565b91505092959194509250565b600067ffffffffffffffff821115611e8057611e7f611cb7565b5b611e8982611a00565b9050602081019050919050565b6000611ea9611ea484611e65565b611d17565b905082815260208101848484011115611ec557611ec4611cb2565b5b611ed0848285611d63565b509392505050565b600082601f830112611eed57611eec611cad565b5b8135611efd848260208601611e96565b91505092915050565b60008060408385031215611f1d57611f1c6118f5565b5b6000611f2b85828601611b42565b925050602083013567ffffffffffffffff811115611f4c57611f4b6118fa565b5b611f5885828601611ed8565b9150509250929050565b60008060408385031215611f7957611f786118f5565b5b6000611f8785828601611b42565b9250506020611f9885828601611b42565b9150509250929050565b7f4e487b7100000000000000000000000000000000000000000000000000000000600052602260045260246000fd5b60006002820490506001821680611fe957607f821691505b602082108103611ffc57611ffb611fa2565b5b50919050565b60006060820190506120176000830186611b01565b6120246020830185611c17565b6120316040830184611b01565b949350505050565b600081905092915050565b600061204f826119ba565b6120598185612039565b93506120698185602086016119d6565b80840191505092915050565b60006120818285612044565b915061208d8284612044565b91508190509392505050565b7f4e487b7100000000000000000000000000000000000000000000000000000000600052601160045260246000fd5b60006120d382611a6c565b91507fffffffffffffffffffffffffffffffffffffffffffffffffffffffffffffffff820361210557612104612099565b5b600182019050919050565b600081519050919050565b600082825260208201905092915050565b600061213782612110565b612141818561211b565b93506121518185602086016119d6565b61215a81611a00565b840191505092915050565b600060808201905061217a6000830187611b01565b6121876020830186611b01565b6121946040830185611c17565b81810360608301526121a6818461212c565b905095945050505050565b6000815190506121c08161192b565b92915050565b6000602082840312156121dc576121db6118f5565b5b60006121ea848285016121b1565b91505092915050565b60008190508160005260206000209050919050565b60006020601f8301049050919050565b600082821b905092915050565b6000600883026122557fffffffffffffffffffffffffffffffffffffffffffffffffffffffffffffffff82612218565b61225f8683612218565b95508019841693508086168417925050509392505050565b6000819050919050565b600061229c61229761229284611a6c565b612277565b611a6c565b9050919050565b6000819050919050565b6122b683612281565b6122ca6122c2826122a3565b848454612225565b825550505050565b600090565b6122df6122d2565b6122ea8184846122ad565b505050565b5b8181101561230e576123036000826122d7565b6001810190506122f0565b5050565b601f82111561235357612324816121f3565b61232d84612208565b8101602085101561233c578190505b61235061234885612208565b8301826122ef565b50505b505050565b600082821c905092915050565b600061237660001984600802612358565b1980831691505092915050565b600061238f8383612365565b9150826002028217905092915050565b6123a8826119ba565b67ffffffffffffffff8111156123c1576123c0611cb7565b5b6123cb8254611fd1565b6123d6828285612312565b600060209050601f83116001811461240957600084156123f7578287015190505b6124018582612383565b865550612469565b601f198416612417866121f3565b60005b8281101561243f5784890151825560018201915060208501945060208101905061241a565b8683101561245c5784890151612458601f891682612365565b8355505b6001600288020188555050505b505050505050565b60006040820190506124866000830185611b01565b6124936020830184611c17565b9392505050565b7f4e487b7100000000000000000000000000000000000000000000000000000000600052601260045260246000fdfe4f6e6c7920746865206d61726b65742063616e20617070726f766520746865207472616e73666572a26469706673582212209834b59cf1efb0c1cd81ae7ea8362a7c02b5b44108e60af56a6b28554d64f22564736f6c63430008180033",
  "linkReferences": {},
  "deployedLinkReferences": {}
}