{
  "_format": "hh-sol-artifact-1",
  "contractName": "MarketNFT",
  "sourceName": "contracts/MarketNFT.sol",
  "abi": [
    {
      "inputs": [],
      "stateMutability": "nonpayable",
      "type": "constructor"
    },
    {
      "inputs": [
        {
          "internalType": "address",
          "name": "owner",
          "type": "address"
        }
      ],
      "name": "OwnableInvalidOwner",
      "type": "error"
    },
    {
      "inputs": [
        {
          "internalType": "address",
          "name": "account",
          "type": "address"
        }
      ],
      "name": "OwnableUnauthorizedAccount",
      "type": "error"
    },
    {
      "anonymous": false,
      "inputs": [
        {
          "indexed": false,
          "internalType": "uint256",
          "name": "tokenId",
          "type": "uint256"
        },
        {
          "indexed": false,
          "internalType": "uint256",
          "name": "price",
          "type": "uint256"
        },
        {
          "indexed": false,
          "internalType": "address",
          "name": "buyer",
          "type": "address"
        }
      ],
      "name": "Bought",
      "type": "event"
    },
    {
      "anonymous": false,
      "inputs": [
        {
          "indexed": false,
          "internalType": "uint256",
          "name": "tokenId",
          "type": "uint256"
        },
        {
          "indexed": false,
          "internalType": "address",
          "name": "seller",
          "type": "address"
        }
      ],
      "name": "Cancelled",
      "type": "event"
    },
    {
      "anonymous": false,
      "inputs": [
        {
          "indexed": false,
          "internalType": "uint256",
          "name": "tokenId",
          "type": "uint256"
        },
        {
          "indexed": false,
          "internalType": "uint256",
          "name": "price",
          "type": "uint256"
        },
        {
          "indexed": false,
          "internalType": "address",
          "name": "seller",
          "type": "address"
        }
      ],
      "name": "Listed",
      "type": "event"
    },
    {
      "anonymous": false,
      "inputs": [
        {
          "indexed": false,
          "internalType": "uint256",
          "name": "tokenId",
          "type": "uint256"
        },
        {
          "indexed": false,
          "internalType": "address",
          "name": "owner",
          "type": "address"
        }
      ],
      "name": "Minted",
      "type": "event"
    },
    {
      "anonymous": false,
      "inputs": [
        {
          "indexed": true,
          "internalType": "address",
          "name": "previousOwner",
          "type": "address"
        },
        {
          "indexed": true,
          "internalType": "address",
          "name": "newOwner",
          "type": "address"
        }
      ],
      "name": "OwnershipTransferred",
      "type": "event"
    },
    {
      "inputs": [
        {
          "internalType": "uint256",
          "name": "tokenId",
          "type": "uint256"
        }
      ],
      "name": "buyNFT",
      "outputs": [],
      "stateMutability": "payable",
      "type": "function"
    },
    {
      "inputs": [
        {
          "internalType": "uint256",
          "name": "tokenId",
          "type": "uint256"
        }
      ],
      "name": "cancelListing",
      "outputs": [],
      "stateMutability": "nonpayable",
      "type": "function"
    },
    {
      "inputs": [],
      "name": "getLastTokenId",
      "outputs": [
        {
          "internalType": "uint256",
          "name": "",
          "type": "uint256"
        }
      ],
      "stateMutability": "view",
      "type": "function"
    },
    {
      "inputs": [
        {
          "internalType": "uint256",
          "name": "tokenId",
          "type": "uint256"
        }
      ],
      "name": "getNFT",
      "outputs": [
        {
          "internalType": "uint256",
          "name": "",
          "type": "uint256"
        },
        {
          "internalType": "address",
          "name": "",
          "type": "address"
        },
        {
          "internalType": "string",
          "name": "",
          "type": "string"
        }
      ],
      "stateMutability": "view",
      "type": "function"
    },
    {
      "inputs": [
        {
          "internalType": "uint256",
          "name": "tokenId",
          "type": "uint256"
        },
        {
          "internalType": "uint256",
          "name": "price",
          "type": "uint256"
        }
      ],
      "name": "listNFT",
      "outputs": [],
      "stateMutability": "nonpayable",
      "type": "function"
    },
    {
      "inputs": [
        {
          "internalType": "address",
          "name": "to",
          "type": "address"
        },
        {
          "internalType": "string",
          "name": "tokenURI",
          "type": "string"
        }
      ],
      "name": "mint",
      "outputs": [
        {
          "internalType": "uint256",
          "name": "",
          "type": "uint256"
        }
      ],
      "stateMutability": "nonpayable",
      "type": "function"
    },
    {
      "inputs": [
        {
          "internalType": "string",
          "name": "tokenURI",
          "type": "string"
        },
        {
          "internalType": "uint256",
          "name": "price",
          "type": "uint256"
        }
      ],
      "name": "mintAndList",
      "outputs": [],
      "stateMutability": "nonpayable",
      "type": "function"
    },
    {
      "inputs": [],
      "name": "owner",
      "outputs": [
        {
          "internalType": "address",
          "name": "",
          "type": "address"
        }
      ],
      "stateMutability": "view",
      "type": "function"
    },
    {
      "inputs": [],
      "name": "renounceOwnership",
      "outputs": [],
      "stateMutability": "nonpayable",
      "type": "function"
    },
    {
      "inputs": [
        {
          "internalType": "address",
          "name": "newOwner",
          "type": "address"
        }
      ],
      "name": "transferOwnership",
      "outputs": [],
      "stateMutability": "nonpayable",
      "type": "function"
    },
    {
      "inputs": [
        {
          "internalType": "uint8",
          "name": "feePercentage",
          "type": "uint8"
        }
      ],
      "name": "updateFeePercentage",
      "outputs": [],
      "stateMutability": "nonpayable",
      "type": "function"
    },
    {
      "inputs": [],
      "name": "withdrawFunds",
      "outputs": [],
      "stateMutability": "nonpayable",
      "type": "function"
    }
  ],
  "bytecode": "0x60a06040526005600360006101000a81548160ff021916908360ff1602179055503480156200002d57600080fd5b5033600073ffffffffffffffffffffffffffffffffffffffff168173ffffffffffffffffffffffffffffffffffffffff1603620000a45760006040517f1e4fbdf70000000000000000000000000000000000000000000000000000000081526004016200009b91906200023f565b60405180910390fd5b620000b5816200012860201b60201c565b5030604051620000c590620001ec565b620000d191906200023f565b604051809103906000f080158015620000ee573d6000803e3d6000fd5b5073ffffffffffffffffffffffffffffffffffffffff1660808173ffffffffffffffffffffffffffffffffffffffff16815250506200025c565b60008060009054906101000a900473ffffffffffffffffffffffffffffffffffffffff169050816000806101000a81548173ffffffffffffffffffffffffffffffffffffffff021916908373ffffffffffffffffffffffffffffffffffffffff1602179055508173ffffffffffffffffffffffffffffffffffffffff168173ffffffffffffffffffffffffffffffffffffffff167f8be0079c531659141344cd1fd0a4f28419497f9722a3daafe3b4186f6b6457e060405160405180910390a35050565b612a4b80620023bb83390190565b600073ffffffffffffffffffffffffffffffffffffffff82169050919050565b60006200022782620001fa565b9050919050565b62000239816200021a565b82525050565b60006020820190506200025660008301846200022e565b92915050565b6080516121206200029b600039600081816106cf01528181610ba501528181610ee60152818161107d0152818161110801526111f501526121206000f3fe6080604052600436106100a75760003560e01c806383c4c00d1161006457806383c4c00d146101875780638da5cb5b146101b257806394383f14146101dd578063d0def52114610206578063d3d1b2e114610243578063f2fde38b1461026c576100a7565b8063085e3d8c146100ac57806324600fc3146100d5578063305a67a8146100ec57806351ed828814610115578063576f7ea714610131578063715018a614610170575b600080fd5b3480156100b857600080fd5b506100d360048036038101906100ce9190611669565b610295565b005b3480156100e157600080fd5b506100ea61031e565b005b3480156100f857600080fd5b50610113600480360381019061010e91906116cc565b61048e565b005b61012f600480360381019061012a91906116cc565b6107b5565b005b34801561013d57600080fd5b50610158600480360381019061015391906116cc565b610ce9565b604051610167939291906117d9565b60405180910390f35b34801561017c57600080fd5b50610185610e1f565b005b34801561019357600080fd5b5061019c610e33565b6040516101a99190611817565b60405180910390f35b3480156101be57600080fd5b506101c7610e3d565b6040516101d49190611832565b60405180910390f35b3480156101e957600080fd5b5061020460048036038101906101ff919061184d565b610e66565b005b34801561021257600080fd5b5061022d600480360381019061022891906119ee565b6111f0565b60405161023a9190611817565b60405180910390f35b34801561024f57600080fd5b5061026a60048036038101906102659190611a4a565b61139d565b005b34801561027857600080fd5b50610293600480360381019061028e9190611aa6565b6113ba565b005b61029d611440565b60648160ff16111560405180606001604052806030815260200161209960309139906102ff576040517f08c379a00000000000000000000000000000000000000000000000000000000081526004016102f69190611ad3565b60405180910390fd5b5080600360006101000a81548160ff021916908360ff16021790555050565b610326611440565b6000479050600081116040518060400160405280601e81526020017f42616c616e6365206d7573742062652067726561746572207468616e20300000815250906103a6576040517f08c379a000000000000000000000000000000000000000000000000000000000815260040161039d9190611ad3565b60405180910390fd5b5060003373ffffffffffffffffffffffffffffffffffffffff16826040516103cd90611b26565b60006040518083038185875af1925050503d806000811461040a576040519150601f19603f3d011682016040523d82523d6000602084013e61040f565b606091505b505090508061048a576040518060400160405280600f81526020017f5472616e73666572206661696c656400000000000000000000000000000000008152506040517f08c379a00000000000000000000000000000000000000000000000000000000081526004016104819190611ad3565b60405180910390fd5b5050565b600060016000838152602001908152602001600020604051806060016040529081600082015481526020016001820160009054906101000a900473ffffffffffffffffffffffffffffffffffffffff1673ffffffffffffffffffffffffffffffffffffffff1673ffffffffffffffffffffffffffffffffffffffff16815260200160028201805461051e90611b6a565b80601f016020809104026020016040519081016040528092919081815260200182805461054a90611b6a565b80156105975780601f1061056c57610100808354040283529160200191610597565b820191906000526020600020905b81548152906001019060200180831161057a57829003601f168201915b505050505081525050905060008160000151116040518060400160405280601381526020017f4e4654206973206e6f7420666f722073616c650000000000000000000000000081525090610621576040517f08c379a00000000000000000000000000000000000000000000000000000000081526004016106189190611ad3565b60405180910390fd5b503373ffffffffffffffffffffffffffffffffffffffff16816020015173ffffffffffffffffffffffffffffffffffffffff16146040518060400160405280602081526020017f596f75277265206e6f74207468652073656c6c6572206f6620746865204e4654815250906106cc576040517f08c379a00000000000000000000000000000000000000000000000000000000081526004016106c39190611ad3565b60405180910390fd5b507f000000000000000000000000000000000000000000000000000000000000000073ffffffffffffffffffffffffffffffffffffffff166323b872dd3033856040518463ffffffff1660e01b815260040161072a93929190611b9b565b600060405180830381600087803b15801561074457600080fd5b505af1158015610758573d6000803e3d6000fd5b50505050600060016000848152602001908152602001600020600001819055507f26deca31ff8139a06c52453ce8985d34f7648a6d9af1d283c4063d052c355a0f82336040516107a9929190611bd2565b60405180910390a15050565b600060016000838152602001908152602001600020604051806060016040529081600082015481526020016001820160009054906101000a900473ffffffffffffffffffffffffffffffffffffffff1673ffffffffffffffffffffffffffffffffffffffff1673ffffffffffffffffffffffffffffffffffffffff16815260200160028201805461084590611b6a565b80601f016020809104026020016040519081016040528092919081815260200182805461087190611b6a565b80156108be5780601f10610893576101008083540402835291602001916108be565b820191906000526020600020905b8154815290600101906020018083116108a157829003601f168201915b505050505081525050905060008160000151116040518060400160405280601381526020017f4e4654206973206e6f7420666f722073616c650000000000000000000000000081525090610948576040517f08c379a000000000000000000000000000000000000000000000000000000000815260040161093f9190611ad3565b60405180910390fd5b50806000015134146040518060600160405280602a815260200161206f602a9139906109aa576040517f08c379a00000000000000000000000000000000000000000000000000000000081526004016109a19190611ad3565b60405180910390fd5b50806020015173ffffffffffffffffffffffffffffffffffffffff163373ffffffffffffffffffffffffffffffffffffffff1614156040518060400160405280601f81526020017f546865206f776e65722063616e27742062757920686973206f776e204e46540081525090610a56576040517f08c379a0000000000000000000000000000000000000000000000000000000008152600401610a4d9190611ad3565b60405180910390fd5b50600080610a868360000151600360009054906101000a900460ff166064610a7e9190611c2a565b60ff166114c7565b9150915081610a9857610a97611c5f565b5b610aa681606460ff1661151a565b809250819350505081610abc57610abb611c5f565b5b6000836020015173ffffffffffffffffffffffffffffffffffffffff1682604051610ae690611b26565b60006040518083038185875af1925050503d8060008114610b23576040519150601f19603f3d011682016040523d82523d6000602084013e610b28565b606091505b5050905080610ba3576040518060400160405280600f81526020017f5472616e73666572206661696c656400000000000000000000000000000000008152506040517f08c379a0000000000000000000000000000000000000000000000000000000008152600401610b9a9190611ad3565b60405180910390fd5b7f000000000000000000000000000000000000000000000000000000000000000073ffffffffffffffffffffffffffffffffffffffff166323b872dd3033886040518463ffffffff1660e01b8152600401610c0093929190611b9b565b600060405180830381600087803b158015610c1a57600080fd5b505af1158015610c2e573d6000803e3d6000fd5b5050505060006001600087815260200190815260200160002060000181905550336001600087815260200190815260200160002060010160006101000a81548173ffffffffffffffffffffffffffffffffffffffff021916908373ffffffffffffffffffffffffffffffffffffffff1602179055507fa2a8034590a15fe810e9813d736096c0a03b3236cecb34b5b9f687ed67a6a62485856000015133604051610cda93929190611c8e565b60405180910390a15050505050565b6000806060600060016000868152602001908152602001600020604051806060016040529081600082015481526020016001820160009054906101000a900473ffffffffffffffffffffffffffffffffffffffff1673ffffffffffffffffffffffffffffffffffffffff1673ffffffffffffffffffffffffffffffffffffffff168152602001600282018054610d7e90611b6a565b80601f0160208091040260200160405190810160405280929190818152602001828054610daa90611b6a565b8015610df75780601f10610dcc57610100808354040283529160200191610df7565b820191906000526020600020905b815481529060010190602001808311610dda57829003601f168201915b5050505050815250509050806000015181602001518260400151935093509350509193909250565b610e27611440565b610e316000611550565b565b6000600254905090565b60008060009054906101000a900473ffffffffffffffffffffffffffffffffffffffff16905090565b600081116040518060400160405280601c81526020017f5072696365206d7573742062652067726561746572207468616e20300000000081525090610ee1576040517f08c379a0000000000000000000000000000000000000000000000000000000008152600401610ed89190611ad3565b60405180910390fd5b5060007f000000000000000000000000000000000000000000000000000000000000000073ffffffffffffffffffffffffffffffffffffffff16636352211e846040518263ffffffff1660e01b8152600401610f3d9190611817565b602060405180830381865afa925050508015610f7757506040513d601f19601f82011682018060405250810190610f749190611cda565b60015b610fd0576040518060600160405280602281526020016120c9602291396040517f08c379a0000000000000000000000000000000000000000000000000000000008152600401610fc79190611ad3565b60405180910390fd5b809150503373ffffffffffffffffffffffffffffffffffffffff168173ffffffffffffffffffffffffffffffffffffffff16146040518060400160405280601f81526020017f596f75277265206e6f7420746865206f776e6572206f6620746865204e4654008152509061107a576040517f08c379a00000000000000000000000000000000000000000000000000000000081526004016110719190611ad3565b60405180910390fd5b507f000000000000000000000000000000000000000000000000000000000000000073ffffffffffffffffffffffffffffffffffffffff1663f658518a846040518263ffffffff1660e01b81526004016110d49190611817565b600060405180830381600087803b1580156110ee57600080fd5b505af1158015611102573d6000803e3d6000fd5b505050507f000000000000000000000000000000000000000000000000000000000000000073ffffffffffffffffffffffffffffffffffffffff166323b872dd3330866040518463ffffffff1660e01b815260040161116393929190611b9b565b600060405180830381600087803b15801561117d57600080fd5b505af1158015611191573d6000803e3d6000fd5b505050508160016000858152602001908152602001600020600001819055507fb4e5606a376800f822ae7ce93010dddb4ebd38ca6db1bdbc2d0a1de90c9079e48383336040516111e393929190611c8e565b60405180910390a1505050565b6000807f000000000000000000000000000000000000000000000000000000000000000073ffffffffffffffffffffffffffffffffffffffff1663d0def52185856040518363ffffffff1660e01b815260040161124e929190611d07565b6020604051808303816000875af115801561126d573d6000803e3d6000fd5b505050506040513d601f19601f820116820180604052508101906112919190611d4c565b90506040518060600160405280600081526020018573ffffffffffffffffffffffffffffffffffffffff16815260200184815250600160008381526020019081526020016000206000820151816000015560208201518160010160006101000a81548173ffffffffffffffffffffffffffffffffffffffff021916908373ffffffffffffffffffffffffffffffffffffffff160217905550604082015181600201908161133e9190611f25565b509050506002600081548092919061135590611ff7565b91905055507fb9203d657e9c0ec8274c818292ab0f58b04e1970050716891770eb1bab5d655e818560405161138b929190611bd2565b60405180910390a18091505092915050565b60006113a933846111f0565b90506113b58183610e66565b505050565b6113c2611440565b600073ffffffffffffffffffffffffffffffffffffffff168173ffffffffffffffffffffffffffffffffffffffff16036114345760006040517f1e4fbdf700000000000000000000000000000000000000000000000000000000815260040161142b9190611832565b60405180910390fd5b61143d81611550565b50565b611448611614565b73ffffffffffffffffffffffffffffffffffffffff16611466610e3d565b73ffffffffffffffffffffffffffffffffffffffff16146114c557611489611614565b6040517f118cdaa70000000000000000000000000000000000000000000000000000000081526004016114bc9190611832565b60405180910390fd5b565b600080600084036114df576001600091509150611513565b60008385029050838582816114f7576114f661203f565b5b041461150a576000809250925050611513565b60018192509250505b9250929050565b600080600083036115315760008091509150611549565b60018385816115435761154261203f565b5b04915091505b9250929050565b60008060009054906101000a900473ffffffffffffffffffffffffffffffffffffffff169050816000806101000a81548173ffffffffffffffffffffffffffffffffffffffff021916908373ffffffffffffffffffffffffffffffffffffffff1602179055508173ffffffffffffffffffffffffffffffffffffffff168173ffffffffffffffffffffffffffffffffffffffff167f8be0079c531659141344cd1fd0a4f28419497f9722a3daafe3b4186f6b6457e060405160405180910390a35050565b600033905090565b6000604051905090565b600080fd5b600080fd5b600060ff82169050919050565b61164681611630565b811461165157600080fd5b50565b6000813590506116638161163d565b92915050565b60006020828403121561167f5761167e611626565b5b600061168d84828501611654565b91505092915050565b6000819050919050565b6116a981611696565b81146116b457600080fd5b50565b6000813590506116c6816116a0565b92915050565b6000602082840312156116e2576116e1611626565b5b60006116f0848285016116b7565b91505092915050565b61170281611696565b82525050565b600073ffffffffffffffffffffffffffffffffffffffff82169050919050565b600061173382611708565b9050919050565b61174381611728565b82525050565b600081519050919050565b600082825260208201905092915050565b60005b83811015611783578082015181840152602081019050611768565b60008484015250505050565b6000601f19601f8301169050919050565b60006117ab82611749565b6117b58185611754565b93506117c5818560208601611765565b6117ce8161178f565b840191505092915050565b60006060820190506117ee60008301866116f9565b6117fb602083018561173a565b818103604083015261180d81846117a0565b9050949350505050565b600060208201905061182c60008301846116f9565b92915050565b6000602082019050611847600083018461173a565b92915050565b6000806040838503121561186457611863611626565b5b6000611872858286016116b7565b9250506020611883858286016116b7565b9150509250929050565b61189681611728565b81146118a157600080fd5b50565b6000813590506118b38161188d565b92915050565b600080fd5b600080fd5b7f4e487b7100000000000000000000000000000000000000000000000000000000600052604160045260246000fd5b6118fb8261178f565b810181811067ffffffffffffffff8211171561191a576119196118c3565b5b80604052505050565b600061192d61161c565b905061193982826118f2565b919050565b600067ffffffffffffffff821115611959576119586118c3565b5b6119628261178f565b9050602081019050919050565b82818337600083830152505050565b600061199161198c8461193e565b611923565b9050828152602081018484840111156119ad576119ac6118be565b5b6119b884828561196f565b509392505050565b600082601f8301126119d5576119d46118b9565b5b81356119e584826020860161197e565b91505092915050565b60008060408385031215611a0557611a04611626565b5b6000611a13858286016118a4565b925050602083013567ffffffffffffffff811115611a3457611a3361162b565b5b611a40858286016119c0565b9150509250929050565b60008060408385031215611a6157611a60611626565b5b600083013567ffffffffffffffff811115611a7f57611a7e61162b565b5b611a8b858286016119c0565b9250506020611a9c858286016116b7565b9150509250929050565b600060208284031215611abc57611abb611626565b5b6000611aca848285016118a4565b91505092915050565b60006020820190508181036000830152611aed81846117a0565b905092915050565b600081905092915050565b50565b6000611b10600083611af5565b9150611b1b82611b00565b600082019050919050565b6000611b3182611b03565b9150819050919050565b7f4e487b7100000000000000000000000000000000000000000000000000000000600052602260045260246000fd5b60006002820490506001821680611b8257607f821691505b602082108103611b9557611b94611b3b565b5b50919050565b6000606082019050611bb0600083018661173a565b611bbd602083018561173a565b611bca60408301846116f9565b949350505050565b6000604082019050611be760008301856116f9565b611bf4602083018461173a565b9392505050565b7f4e487b7100000000000000000000000000000000000000000000000000000000600052601160045260246000fd5b6000611c3582611630565b9150611c4083611630565b9250828203905060ff811115611c5957611c58611bfb565b5b92915050565b7f4e487b7100000000000000000000000000000000000000000000000000000000600052600160045260246000fd5b6000606082019050611ca360008301866116f9565b611cb060208301856116f9565b611cbd604083018461173a565b949350505050565b600081519050611cd48161188d565b92915050565b600060208284031215611cf057611cef611626565b5b6000611cfe84828501611cc5565b91505092915050565b6000604082019050611d1c600083018561173a565b8181036020830152611d2e81846117a0565b90509392505050565b600081519050611d46816116a0565b92915050565b600060208284031215611d6257611d61611626565b5b6000611d7084828501611d37565b91505092915050565b60008190508160005260206000209050919050565b60006020601f8301049050919050565b600082821b905092915050565b600060088302611ddb7fffffffffffffffffffffffffffffffffffffffffffffffffffffffffffffffff82611d9e565b611de58683611d9e565b95508019841693508086168417925050509392505050565b6000819050919050565b6000611e22611e1d611e1884611696565b611dfd565b611696565b9050919050565b6000819050919050565b611e3c83611e07565b611e50611e4882611e29565b848454611dab565b825550505050565b600090565b611e65611e58565b611e70818484611e33565b505050565b5b81811015611e9457611e89600082611e5d565b600181019050611e76565b5050565b601f821115611ed957611eaa81611d79565b611eb384611d8e565b81016020851015611ec2578190505b611ed6611ece85611d8e565b830182611e75565b50505b505050565b600082821c905092915050565b6000611efc60001984600802611ede565b1980831691505092915050565b6000611f158383611eeb565b9150826002028217905092915050565b611f2e82611749565b67ffffffffffffffff811115611f4757611f466118c3565b5b611f518254611b6a565b611f5c828285611e98565b600060209050601f831160018114611f8f5760008415611f7d578287015190505b611f878582611f09565b865550611fef565b601f198416611f9d86611d79565b60005b82811015611fc557848901518255600182019150602085019450602081019050611fa0565b86831015611fe25784890151611fde601f891682611eeb565b8355505b6001600288020188555050505b505050505050565b600061200282611696565b91507fffffffffffffffffffffffffffffffffffffffffffffffffffffffffffffffff820361203457612033611bfb565b5b600182019050919050565b7f4e487b7100000000000000000000000000000000000000000000000000000000600052601260045260246000fdfe5468652070726963652070616964206973206e6f74207468652076616c7565206f6620746865204e46544665652070657263656e74616765206d757374206265206c657373207468616e206f7220657175616c20746f203130304e4654206973206e6f742070726573656e7420696e2074686520636f6e7472616374a2646970667358221220b1c18187a3135f2476df3c4f8608f63feb23b8554bc6569d33370c0f39d092b564736f6c6343000818003360a06040523480156200001157600080fd5b5060405162002a4b38038062002a4b83398181016040528101906200003791906200016e565b6040518060400160405280600881526020017f4e4654546f6b656e0000000000000000000000000000000000000000000000008152506040518060400160405280600381526020017f4e465400000000000000000000000000000000000000000000000000000000008152508160009081620000b491906200041a565b508060019081620000c691906200041a565b5050508073ffffffffffffffffffffffffffffffffffffffff1660808173ffffffffffffffffffffffffffffffffffffffff16815250505062000501565b600080fd5b600073ffffffffffffffffffffffffffffffffffffffff82169050919050565b6000620001368262000109565b9050919050565b620001488162000129565b81146200015457600080fd5b50565b60008151905062000168816200013d565b92915050565b60006020828403121562000187576200018662000104565b5b6000620001978482850162000157565b91505092915050565b600081519050919050565b7f4e487b7100000000000000000000000000000000000000000000000000000000600052604160045260246000fd5b7f4e487b7100000000000000000000000000000000000000000000000000000000600052602260045260246000fd5b600060028204905060018216806200022257607f821691505b602082108103620002385762000237620001da565b5b50919050565b60008190508160005260206000209050919050565b60006020601f8301049050919050565b600082821b905092915050565b600060088302620002a27fffffffffffffffffffffffffffffffffffffffffffffffffffffffffffffffff8262000263565b620002ae868362000263565b95508019841693508086168417925050509392505050565b6000819050919050565b6000819050919050565b6000620002fb620002f5620002ef84620002c6565b620002d0565b620002c6565b9050919050565b6000819050919050565b6200031783620002da565b6200032f620003268262000302565b84845462000270565b825550505050565b600090565b6200034662000337565b620003538184846200030c565b505050565b5b818110156200037b576200036f6000826200033c565b60018101905062000359565b5050565b601f821115620003ca5762000394816200023e565b6200039f8462000253565b81016020851015620003af578190505b620003c7620003be8562000253565b83018262000358565b50505b505050565b600082821c905092915050565b6000620003ef60001984600802620003cf565b1980831691505092915050565b60006200040a8383620003dc565b9150826002028217905092915050565b6200042582620001a0565b67ffffffffffffffff811115620004415762000440620001ab565b5b6200044d825462000209565b6200045a8282856200037f565b600060209050601f8311600181146200049257600084156200047d578287015190505b620004898582620003fc565b865550620004f9565b601f198416620004a2866200023e565b60005b82811015620004cc57848901518255600182019150602085019450602081019050620004a5565b86831015620004ec5784890151620004e8601f891682620003dc565b8355505b6001600288020188555050505b505050505050565b60805161252762000524600039600081816108e9015261099601526125276000f3fe608060405234801561001057600080fd5b50600436106100f55760003560e01c806370a0823111610097578063c87b56dd11610066578063c87b56dd14610282578063d0def521146102b2578063e985e9c5146102e2578063f658518a14610312576100f5565b806370a08231146101fc57806395d89b411461022c578063a22cb4651461024a578063b88d4fde14610266576100f5565b8063095ea7b3116100d3578063095ea7b31461017857806323b872dd1461019457806342842e0e146101b05780636352211e146101cc576100f5565b806301ffc9a7146100fa57806306fdde031461012a578063081812fc14610148575b600080fd5b610114600480360381019061010f9190611957565b61032e565b604051610121919061199f565b60405180910390f35b61013261038f565b60405161013f9190611a4a565b60405180910390f35b610162600480360381019061015d9190611aa2565b610421565b60405161016f9190611b10565b60405180910390f35b610192600480360381019061018d9190611b57565b61043d565b005b6101ae60048036038101906101a99190611b97565b610453565b005b6101ca60048036038101906101c59190611b97565b610555565b005b6101e660048036038101906101e19190611aa2565b610575565b6040516101f39190611b10565b60405180910390f35b61021660048036038101906102119190611bea565b610587565b6040516102239190611c26565b60405180910390f35b610234610641565b6040516102419190611a4a565b60405180910390f35b610264600480360381019061025f9190611c6d565b6106d3565b005b610280600480360381019061027b9190611de2565b6106e9565b005b61029c60048036038101906102979190611aa2565b610706565b6040516102a99190611a4a565b60405180910390f35b6102cc60048036038101906102c79190611f06565b610819565b6040516102d99190611c26565b60405180910390f35b6102fc60048036038101906102f79190611f62565b610853565b604051610309919061199f565b60405180910390f35b61032c60048036038101906103279190611aa2565b6108e7565b005b6000634906490660e01b7bffffffffffffffffffffffffffffffffffffffffffffffffffffffff1916827bffffffffffffffffffffffffffffffffffffffffffffffffffffffff191614806103885750610387826109c9565b5b9050919050565b60606000805461039e90611fd1565b80601f01602080910402602001604051908101604052809291908181526020018280546103ca90611fd1565b80156104175780601f106103ec57610100808354040283529160200191610417565b820191906000526020600020905b8154815290600101906020018083116103fa57829003601f168201915b5050505050905090565b600061042c82610aab565b5061043682610b33565b9050919050565b61044f828261044a610b70565b610b78565b5050565b600073ffffffffffffffffffffffffffffffffffffffff168273ffffffffffffffffffffffffffffffffffffffff16036104c55760006040517f64a0ae920000000000000000000000000000000000000000000000000000000081526004016104bc9190611b10565b60405180910390fd5b60006104d983836104d4610b70565b610b8a565b90508373ffffffffffffffffffffffffffffffffffffffff168173ffffffffffffffffffffffffffffffffffffffff161461054f578382826040517f64283d7b00000000000000000000000000000000000000000000000000000000815260040161054693929190612002565b60405180910390fd5b50505050565b610570838383604051806020016040528060008152506106e9565b505050565b600061058082610aab565b9050919050565b60008073ffffffffffffffffffffffffffffffffffffffff168273ffffffffffffffffffffffffffffffffffffffff16036105fa5760006040517f89c62b640000000000000000000000000000000000000000000000000000000081526004016105f19190611b10565b60405180910390fd5b600360008373ffffffffffffffffffffffffffffffffffffffff1673ffffffffffffffffffffffffffffffffffffffff168152602001908152602001600020549050919050565b60606001805461065090611fd1565b80601f016020809104026020016040519081016040528092919081815260200182805461067c90611fd1565b80156106c95780601f1061069e576101008083540402835291602001916106c9565b820191906000526020600020905b8154815290600101906020018083116106ac57829003601f168201915b5050505050905090565b6106e56106de610b70565b8383610da4565b5050565b6106f4848484610453565b61070084848484610f13565b50505050565b606061071182610aab565b50600060066000848152602001908152602001600020805461073290611fd1565b80601f016020809104026020016040519081016040528092919081815260200182805461075e90611fd1565b80156107ab5780601f10610780576101008083540402835291602001916107ab565b820191906000526020600020905b81548152906001019060200180831161078e57829003601f168201915b5050505050905060006107bc6110ca565b905060008151036107d1578192505050610814565b6000825111156108065780826040516020016107ee929190612075565b60405160208183030381529060405292505050610814565b61080f846110e1565b925050505b919050565b6000806007600081548092919061082f906120c8565b91905055905061083f848261114a565b6108498184611168565b8091505092915050565b6000600560008473ffffffffffffffffffffffffffffffffffffffff1673ffffffffffffffffffffffffffffffffffffffff16815260200190815260200160002060008373ffffffffffffffffffffffffffffffffffffffff1673ffffffffffffffffffffffffffffffffffffffff16815260200190815260200160002060009054906101000a900460ff16905092915050565b7f000000000000000000000000000000000000000000000000000000000000000073ffffffffffffffffffffffffffffffffffffffff163373ffffffffffffffffffffffffffffffffffffffff16146040518060600160405280602881526020016124ca6028913990610990576040517f08c379a00000000000000000000000000000000000000000000000000000000081526004016109879190611a4a565b60405180910390fd5b506109c67f0000000000000000000000000000000000000000000000000000000000000000826109bf84610575565b60016111c4565b50565b60007f80ac58cd000000000000000000000000000000000000000000000000000000007bffffffffffffffffffffffffffffffffffffffffffffffffffffffff1916827bffffffffffffffffffffffffffffffffffffffffffffffffffffffff19161480610a9457507f5b5e139f000000000000000000000000000000000000000000000000000000007bffffffffffffffffffffffffffffffffffffffffffffffffffffffff1916827bffffffffffffffffffffffffffffffffffffffffffffffffffffffff1916145b80610aa45750610aa382611389565b5b9050919050565b600080610ab7836113f3565b9050600073ffffffffffffffffffffffffffffffffffffffff168173ffffffffffffffffffffffffffffffffffffffff1603610b2a57826040517f7e273289000000000000000000000000000000000000000000000000000000008152600401610b219190611c26565b60405180910390fd5b80915050919050565b60006004600083815260200190815260200160002060009054906101000a900473ffffffffffffffffffffffffffffffffffffffff169050919050565b600033905090565b610b8583838360016111c4565b505050565b600080610b96846113f3565b9050600073ffffffffffffffffffffffffffffffffffffffff168373ffffffffffffffffffffffffffffffffffffffff1614610bd857610bd7818486611430565b5b600073ffffffffffffffffffffffffffffffffffffffff168173ffffffffffffffffffffffffffffffffffffffff1614610c6957610c1a6000856000806111c4565b6001600360008373ffffffffffffffffffffffffffffffffffffffff1673ffffffffffffffffffffffffffffffffffffffff168152602001908152602001600020600082825403925050819055505b600073ffffffffffffffffffffffffffffffffffffffff168573ffffffffffffffffffffffffffffffffffffffff1614610cec576001600360008773ffffffffffffffffffffffffffffffffffffffff1673ffffffffffffffffffffffffffffffffffffffff168152602001908152602001600020600082825401925050819055505b846002600086815260200190815260200160002060006101000a81548173ffffffffffffffffffffffffffffffffffffffff021916908373ffffffffffffffffffffffffffffffffffffffff160217905550838573ffffffffffffffffffffffffffffffffffffffff168273ffffffffffffffffffffffffffffffffffffffff167fddf252ad1be2c89b69c2b068fc378daa952ba7f163c4a11628f55a4df523b3ef60405160405180910390a4809150509392505050565b600073ffffffffffffffffffffffffffffffffffffffff168273ffffffffffffffffffffffffffffffffffffffff1603610e1557816040517f5b08ba18000000000000000000000000000000000000000000000000000000008152600401610e0c9190611b10565b60405180910390fd5b80600560008573ffffffffffffffffffffffffffffffffffffffff1673ffffffffffffffffffffffffffffffffffffffff16815260200190815260200160002060008473ffffffffffffffffffffffffffffffffffffffff1673ffffffffffffffffffffffffffffffffffffffff16815260200190815260200160002060006101000a81548160ff0219169083151502179055508173ffffffffffffffffffffffffffffffffffffffff168373ffffffffffffffffffffffffffffffffffffffff167f17307eab39ab6107e8899845ad3d59bd9653f200f220920489ca2b5937696c3183604051610f06919061199f565b60405180910390a3505050565b60008373ffffffffffffffffffffffffffffffffffffffff163b11156110c4578273ffffffffffffffffffffffffffffffffffffffff1663150b7a02610f57610b70565b8685856040518563ffffffff1660e01b8152600401610f799493929190612165565b6020604051808303816000875af1925050508015610fb557506040513d601f19601f82011682018060405250810190610fb291906121c6565b60015b611039573d8060008114610fe5576040519150601f19603f3d011682016040523d82523d6000602084013e610fea565b606091505b50600081510361103157836040517f64a0ae920000000000000000000000000000000000000000000000000000000081526004016110289190611b10565b60405180910390fd5b805181602001fd5b63150b7a0260e01b7bffffffffffffffffffffffffffffffffffffffffffffffffffffffff1916817bffffffffffffffffffffffffffffffffffffffffffffffffffffffff1916146110c257836040517f64a0ae920000000000000000000000000000000000000000000000000000000081526004016110b99190611b10565b60405180910390fd5b505b50505050565b606060405180602001604052806000815250905090565b60606110ec82610aab565b5060006110f76110ca565b905060008151116111175760405180602001604052806000815250611142565b80611121846114f4565b604051602001611132929190612075565b6040516020818303038152906040525b915050919050565b6111648282604051806020016040528060008152506115c2565b5050565b80600660008481526020019081526020016000209081611188919061239f565b507ff8e1a15aba9398e019f0b49df1a4fde98ee17ae345cb5f6b5e2c27f5033e8ce7826040516111b89190611c26565b60405180910390a15050565b80806111fd5750600073ffffffffffffffffffffffffffffffffffffffff168273ffffffffffffffffffffffffffffffffffffffff1614155b1561133157600061120d84610aab565b9050600073ffffffffffffffffffffffffffffffffffffffff168373ffffffffffffffffffffffffffffffffffffffff161415801561127857508273ffffffffffffffffffffffffffffffffffffffff168173ffffffffffffffffffffffffffffffffffffffff1614155b801561128b57506112898184610853565b155b156112cd57826040517fa9fbf51f0000000000000000000000000000000000000000000000000000000081526004016112c49190611b10565b60405180910390fd5b811561132f57838573ffffffffffffffffffffffffffffffffffffffff168273ffffffffffffffffffffffffffffffffffffffff167f8c5be1e5ebec7d5bd14f71427d1e84f3dd0314c0f7b2291e5b200ac8c7c3b92560405160405180910390a45b505b836004600085815260200190815260200160002060006101000a81548173ffffffffffffffffffffffffffffffffffffffff021916908373ffffffffffffffffffffffffffffffffffffffff16021790555050505050565b60007f01ffc9a7000000000000000000000000000000000000000000000000000000007bffffffffffffffffffffffffffffffffffffffffffffffffffffffff1916827bffffffffffffffffffffffffffffffffffffffffffffffffffffffff1916149050919050565b60006002600083815260200190815260200160002060009054906101000a900473ffffffffffffffffffffffffffffffffffffffff169050919050565b61143b8383836115de565b6114ef57600073ffffffffffffffffffffffffffffffffffffffff168373ffffffffffffffffffffffffffffffffffffffff16036114b057806040517f7e2732890000000000000000000000000000000000000000000000000000000081526004016114a79190611c26565b60405180910390fd5b81816040517f177e802f0000000000000000000000000000000000000000000000000000000081526004016114e6929190612471565b60405180910390fd5b505050565b6060600060016115038461169f565b01905060008167ffffffffffffffff81111561152257611521611cb7565b5b6040519080825280601f01601f1916602001820160405280156115545781602001600182028036833780820191505090505b509050600082602001820190505b6001156115b7578080600190039150507f3031323334353637383961626364656600000000000000000000000000000000600a86061a8153600a85816115ab576115aa61249a565b5b04945060008503611562575b819350505050919050565b6115cc83836117f2565b6115d96000848484610f13565b505050565b60008073ffffffffffffffffffffffffffffffffffffffff168373ffffffffffffffffffffffffffffffffffffffff161415801561169657508273ffffffffffffffffffffffffffffffffffffffff168473ffffffffffffffffffffffffffffffffffffffff16148061165757506116568484610853565b5b8061169557508273ffffffffffffffffffffffffffffffffffffffff1661167d83610b33565b73ffffffffffffffffffffffffffffffffffffffff16145b5b90509392505050565b600080600090507a184f03e93ff9f4daa797ed6e38ed64bf6a1f01000000000000000083106116fd577a184f03e93ff9f4daa797ed6e38ed64bf6a1f01000000000000000083816116f3576116f261249a565b5b0492506040810190505b6d04ee2d6d415b85acef8100000000831061173a576d04ee2d6d415b85acef810000000083816117305761172f61249a565b5b0492506020810190505b662386f26fc10000831061176957662386f26fc10000838161175f5761175e61249a565b5b0492506010810190505b6305f5e1008310611792576305f5e10083816117885761178761249a565b5b0492506008810190505b61271083106117b75761271083816117ad576117ac61249a565b5b0492506004810190505b606483106117da57606483816117d0576117cf61249a565b5b0492506002810190505b600a83106117e9576001810190505b80915050919050565b600073ffffffffffffffffffffffffffffffffffffffff168273ffffffffffffffffffffffffffffffffffffffff16036118645760006040517f64a0ae9200000000000000000000000000000000000000000000000000000000815260040161185b9190611b10565b60405180910390fd5b600061187283836000610b8a565b9050600073ffffffffffffffffffffffffffffffffffffffff168173ffffffffffffffffffffffffffffffffffffffff16146118e65760006040517f73c6ac6e0000000000000000000000000000000000000000000000000000000081526004016118dd9190611b10565b60405180910390fd5b505050565b6000604051905090565b600080fd5b600080fd5b60007fffffffff0000000000000000000000000000000000000000000000000000000082169050919050565b611934816118ff565b811461193f57600080fd5b50565b6000813590506119518161192b565b92915050565b60006020828403121561196d5761196c6118f5565b5b600061197b84828501611942565b91505092915050565b60008115159050919050565b61199981611984565b82525050565b60006020820190506119b46000830184611990565b92915050565b600081519050919050565b600082825260208201905092915050565b60005b838110156119f45780820151818401526020810190506119d9565b60008484015250505050565b6000601f19601f8301169050919050565b6000611a1c826119ba565b611a2681856119c5565b9350611a368185602086016119d6565b611a3f81611a00565b840191505092915050565b60006020820190508181036000830152611a648184611a11565b905092915050565b6000819050919050565b611a7f81611a6c565b8114611a8a57600080fd5b50565b600081359050611a9c81611a76565b92915050565b600060208284031215611ab857611ab76118f5565b5b6000611ac684828501611a8d565b91505092915050565b600073ffffffffffffffffffffffffffffffffffffffff82169050919050565b6000611afa82611acf565b9050919050565b611b0a81611aef565b82525050565b6000602082019050611b256000830184611b01565b92915050565b611b3481611aef565b8114611b3f57600080fd5b50565b600081359050611b5181611b2b565b92915050565b60008060408385031215611b6e57611b6d6118f5565b5b6000611b7c85828601611b42565b9250506020611b8d85828601611a8d565b9150509250929050565b600080600060608486031215611bb057611baf6118f5565b5b6000611bbe86828701611b42565b9350506020611bcf86828701611b42565b9250506040611be086828701611a8d565b9150509250925092565b600060208284031215611c0057611bff6118f5565b5b6000611c0e84828501611b42565b91505092915050565b611c2081611a6c565b82525050565b6000602082019050611c3b6000830184611c17565b92915050565b611c4a81611984565b8114611c5557600080fd5b50565b600081359050611c6781611c41565b92915050565b60008060408385031215611c8457611c836118f5565b5b6000611c9285828601611b42565b9250506020611ca385828601611c58565b9150509250929050565b600080fd5b600080fd5b7f4e487b7100000000000000000000000000000000000000000000000000000000600052604160045260246000fd5b611cef82611a00565b810181811067ffffffffffffffff82111715611d0e57611d0d611cb7565b5b80604052505050565b6000611d216118eb565b9050611d2d8282611ce6565b919050565b600067ffffffffffffffff821115611d4d57611d4c611cb7565b5b611d5682611a00565b9050602081019050919050565b82818337600083830152505050565b6000611d85611d8084611d32565b611d17565b905082815260208101848484011115611da157611da0611cb2565b5b611dac848285611d63565b509392505050565b600082601f830112611dc957611dc8611cad565b5b8135611dd9848260208601611d72565b91505092915050565b60008060008060808587031215611dfc57611dfb6118f5565b5b6000611e0a87828801611b42565b9450506020611e1b87828801611b42565b9350506040611e2c87828801611a8d565b925050606085013567ffffffffffffffff811115611e4d57611e4c6118fa565b5b611e5987828801611db4565b91505092959194509250565b600067ffffffffffffffff821115611e8057611e7f611cb7565b5b611e8982611a00565b9050602081019050919050565b6000611ea9611ea484611e65565b611d17565b905082815260208101848484011115611ec557611ec4611cb2565b5b611ed0848285611d63565b509392505050565b600082601f830112611eed57611eec611cad565b5b8135611efd848260208601611e96565b91505092915050565b60008060408385031215611f1d57611f1c6118f5565b5b6000611f2b85828601611b42565b925050602083013567ffffffffffffffff811115611f4c57611f4b6118fa565b5b611f5885828601611ed8565b9150509250929050565b60008060408385031215611f7957611f786118f5565b5b6000611f8785828601611b42565b9250506020611f9885828601611b42565b9150509250929050565b7f4e487b7100000000000000000000000000000000000000000000000000000000600052602260045260246000fd5b60006002820490506001821680611fe957607f821691505b602082108103611ffc57611ffb611fa2565b5b50919050565b60006060820190506120176000830186611b01565b6120246020830185611c17565b6120316040830184611b01565b949350505050565b600081905092915050565b600061204f826119ba565b6120598185612039565b93506120698185602086016119d6565b80840191505092915050565b60006120818285612044565b915061208d8284612044565b91508190509392505050565b7f4e487b7100000000000000000000000000000000000000000000000000000000600052601160045260246000fd5b60006120d382611a6c565b91507fffffffffffffffffffffffffffffffffffffffffffffffffffffffffffffffff820361210557612104612099565b5b600182019050919050565b600081519050919050565b600082825260208201905092915050565b600061213782612110565b612141818561211b565b93506121518185602086016119d6565b61215a81611a00565b840191505092915050565b600060808201905061217a6000830187611b01565b6121876020830186611b01565b6121946040830185611c17565b81810360608301526121a6818461212c565b905095945050505050565b6000815190506121c08161192b565b92915050565b6000602082840312156121dc576121db6118f5565b5b60006121ea848285016121b1565b91505092915050565b60008190508160005260206000209050919050565b60006020601f8301049050919050565b600082821b905092915050565b6000600883026122557fffffffffffffffffffffffffffffffffffffffffffffffffffffffffffffffff82612218565b61225f8683612218565b95508019841693508086168417925050509392505050565b6000819050919050565b600061229c61229761229284611a6c565b612277565b611a6c565b9050919050565b6000819050919050565b6122b683612281565b6122ca6122c2826122a3565b848454612225565b825550505050565b600090565b6122df6122d2565b6122ea8184846122ad565b505050565b5b8181101561230e576123036000826122d7565b6001810190506122f0565b5050565b601f82111561235357612324816121f3565b61232d84612208565b8101602085101561233c578190505b61235061234885612208565b8301826122ef565b50505b505050565b600082821c905092915050565b600061237660001984600802612358565b1980831691505092915050565b600061238f8383612365565b9150826002028217905092915050565b6123a8826119ba565b67ffffffffffffffff8111156123c1576123c0611cb7565b5b6123cb8254611fd1565b6123d6828285612312565b600060209050601f83116001811461240957600084156123f7578287015190505b6124018582612383565b865550612469565b601f198416612417866121f3565b60005b8281101561243f5784890151825560018201915060208501945060208101905061241a565b8683101561245c5784890151612458601f891682612365565b8355505b6001600288020188555050505b505050505050565b60006040820190506124866000830185611b01565b6124936020830184611c17565b9392505050565b7f4e487b7100000000000000000000000000000000000000000000000000000000600052601260045260246000fdfe4f6e6c7920746865206d61726b65742063616e20617070726f766520746865207472616e73666572a26469706673582212205f32b32989a7e982c95b19aa2e64e0e7689ed92e4f8616c419c21bfd9733d7e064736f6c63430008180033",
  "linkReferences": {},
  "deployedLinkReferences": {}
}